:100000000C94D0020C9408030C9408030C9408037D
:100010000C9408030C9408030C9408030C94080334
:100020000C9408030C9408030C94B32A0C94872BAB
:100030000C94C5250C9408030C9408030C94080335
:100040000C9408030C9408030C9408030C94080304
:100050000C9408030C944C260C9408030C9408038D
:100060000C9408030C9408030C9408030C940803E4
:100070000C9408030C9408030C9408030C940803D4
:100080000C9408030C9408030C9408030C940803C4
:100090000C9408030C9408030C9408030C940803B4
:1000A0000C9408030C9408030C9408032B00140010
:1000B0001A000800150017001C0018000C001200A0
:1000C00013002A00290004001600070009000A0096
:1000D0000B000D000E000F002D002800E1001D0098
:1000E0001B00060019000500110010003600370043
:1000F0005200E500E0003500000FE200E3002C00B4
:10010000000000002152500051004F0001001E006D
:100110001F002000210022002300240025002600CB
:10012000270001000100037802780478BC00AE00CB
:10013000BB00A800AA00A9002E00010001000100D8
:1001400001003300010001003100340030003800AC
:100150005200010001000100010001000100010046
:10016000000000000100500051004F001E0F05006C
:10017000047F3F1F643214643214783C1E1E140A3C
:10018000052223252628292A2C2D2F3032333536D7
:10019000383A3B3D3E4042434547494A4C4E505118
:1001A000535557595A5C5E6062646668696B6D6F3F
:1001B00071737577797B7D7F81838587898A8C8E42
:1001C00090929496989A9C9E9FA1A3A5A7A8AAAC4A
:1001D000AEAFB1B3B4B6B8B9BBBCBEBFC1C2C3C584
:1001E000C6C7C9CACBCCCDCED0D1D2D2D3D4D5D626
:1001F000D7D7D8D9D9DADADBDBDBDCDCDCDCDCDD59
:10020000DDDDDDDCDCDCDCDCDBDBDBDADAD9D9D83C
:10021000D7D7D6D5D4D3D2D2D1D0CECDCCCBCAC9D4
:10022000C7C6C5C3C2C1BFBEBCBBB9B8B6B4B3B103
:10023000AFAEACAAA8A7A5A3A19F9E9C9A9896949E
:1002400092908E8C8A89878583817F7D7B79777573
:1002500073716F6D6B6968666462605E5C5A595752
:10026000555351504E4C4A4947454342403E3D3B11
:100270003A3836353332302F2D2C2A29282625239B
:1002800022FFAA7F55400001010101010101010186
:100290000202020202020202020303030303030337
:1002A0000304040404040404050505050506060604
:1002B0000606070707070708080808090909090AC1
:1002C0000A0A0B0B0B0C0C0C0D0D0D0E0E0E0F0F66
:1002D0000F101011111112121313141415151616F4
:1002E0001717181819191A1A1B1B1C1D1D1E1E1F63
:1002F0002020212222232424252626272829292AB2
:100300002B2C2D2D2E2F30313232333435363738D9
:10031000393A3B3C3D3E3F404142434445464748D5
:10032000494A4C4D4E4F50515354555658595A5BAB
:100330005D5E5F616264656668696B6C6D6F70724B
:10034000737577787A7B7D7E8082838587888A8CB7
:100350008E8F91939596989A9C9EA0A2A3A5A7A9EB
:10036000ABADAFB1B3B5B7BABCBEC0C2C4C6C9CBE2
:10037000CDCFD1D4D6D8DBDDDFE2E4E7E9EBEEF098
:10038000F3F5F8FAFDFF00000000000000002A2B42
:100390002800000000000000000000000000000035
:1003A0000029000000002C1E34202122243426279E
:1003B000252E362D3738271E1F20212223242526BF
:1003C0003333362E37381F0405060708090A0B0C8D
:1003D0000D0E0F101112131415161718191A1B1CD5
:1003E0001D2F3130232D350405060708090A0B0C93
:1003F0000D0E0F101112131415161718191A1B1CB5
:100400001D2F3130354C00000000000000000000BE
:1004100000000000000000000000000000000000DC
:10042000000000000000000000007E0F00D4FFFF6D
:10043000FFC7000000780C0341004D004A00340063
:10044000300000001203480061006E0020004300ED
:10045000680065006E0000000403090409023B0007
:10046000020100A0FA0904000001030101000921B2
:100470001101000122400007058103080001090461
:100480000100010300000009211101000122B60052
:10049000070582032000011201000200000008D8B5
:1004A00000726002000102000105010902A101853C
:1004B000020901A100050919012908150025019566
:1004C00008750181020501093009311581257F95E3
:1004D000027508810609381581257F950175088107
:1004E00006050C0A38021581257F950175088106DD
:1004F000C0C005010980A101850319012AB70015B3
:100500000126B700950175108100C0050C0901A1F5
:1005100001850419012AA002150126A00295017582
:10052000108100C005010906A1018506050719E033
:1005300029E71500250195087501810205071900B5
:1005400029EF1500250195F07501810205081901B3
:100550002905950575019102950175039101C00565
:10056000010906A101050719E029E71500250195F4
:100570000875018102950175088101050719002997
:10058000FF150026FF009506750881000508190172
:100590002905950575019102950175039101C0002A
:1005A00011241FBECFEFDAE0DEBFCDBF04B603FEDD
:1005B00018C080914B0390914C03A0914D03B091D2
:1005C0004E038730904BA740B04B59F410924B0329
:1005D00010924C0310924D0310924E03E0E0F8E3AA
:1005E000099511E0A0E0B1E0ECE7FEE502C005905E
:1005F0000D92A43DB107D9F723E0A4EDB1E001C00D
:100600001D92AB34B207E1F70E94A4130C94E82EBC
:100610000C940000CF93FB0182302EE79207A9F0E3
:1006200083302EE79207F1F0C1E081309E47B9F4A4
:10063000C28181E0CC2361F00E94E40943E062E0E2
:1006400081E00E943404C0E00AC0C28182E0F2CF9F
:100650000E94F40943E062E081E00E9434048C2FA0
:10066000CF910895C28183E0CC2319F00E94E40960
:10067000EACF0E94F409F3CF8230B8F46430A8F4D2
:100680004C3098F450E09CE0699F400D511D1124BE
:10069000FA0190E3899FE00DF11D1124EE0FFF1F79
:1006A000E455FF4F85919491089580E090E008957E
:1006B0000E943C0308959C013A9521153F4150F555
:1006C000FC01EE27F170BC0166277270AC01442773
:1006D00054709C012227387094FF0EC080E1EF2BEC
:1006E00009F480E0672B09F08062452B09F08064F3
:1006F000232B89F08068089581E0EF2B09F480E0D6
:10070000672B09F08260452B09F08460232B19F0D8
:100710008860089580E00895CF93DF93EB010E94F5
:100720005B03FE010995DF91CF910895CF93DF938D
:10073000EC01805E9109089720F061E379E0209751
:1007400011F46AEE76E0CE010E948C038C2F0E9499
:10075000DD05DF91CF910895CF93DF93EC010E94E7
:100760006F06CE01805E9109089720F068E379E07A
:10077000209711F461EF76E0CE010E948C03DF91A7
:10078000CF91089581E008950E940A030895089585
:100790000E94C7030895A5E0B0E0E1EDF3E00C94FA
:1007A000DA2D49835A833091E20189819A8131118E
:1007B00019C0662399F0222389F00E94AA0A182FF3
:1007C000682F89819A810E94860A69817A81812FA6
:1007D0000E9417112596E3E00C94F62D0E94980ACA
:1007E000182FF3CF0E94AA0A69817A81F1CFFC0108
:1007F000262F408151816281738184810E94CB03C5
:10080000089581E00895CF93DF93EC0160E00E94AA
:10081000F703BE010E94C803DF91CF910895E1E084
:10082000F0E0DF0102C0AA0FBB1F6A95E2F7BD012D
:10083000DF0102C0AA0FBB1F4A95E2F7AD01462BAC
:10084000572B02C0EE0FFF1F2A95E2F79A012823CB
:1008500039232417350719F48E2B9F2B0895E09523
:10086000F0958E239F230895242F462F682F809183
:10087000FB019091FC010E940F040E94CC09089595
:100880000E94481208950E944C12089508950E94F3
:1008900055090E9446042FEF84E39CE021508040DC
:1008A0009040E1F700C0000008950E9447040E94B4
:1008B000702608950E9447040E94942608950F937D
:1008C0001F93CF93DF938C0161E00E94F703EC014B
:1008D000B8010E94C403811106C080E0DF91CF916E
:1008E0001F910F910895B801CE010E94651E8823C3
:1008F000A1F3B801CE010E947022882371F3B801E0
:10090000CE010E94E623882341F3B801CE010E9464
:10091000761F882311F3B801CE010E945823882343
:10092000E1F2B801CE010E940B1D8823B1F2F8015B
:100930008281882361F0C330FCE7DF07E9F058F4D7
:10094000C115ECE7DE07A9F0C130DC47B9F0C801FA
:100950000E94C203C3CFCB358CE7D807A9F0CC35B2
:10096000ECE7DE0771F0CA35DC4789F70E94AC0E70
:10097000EECF0E945504B1CF0E94B40E0E945A04DB
:10098000ACCF0E94A20EE3CF0E94B00EE0CF0E9437
:10099000A12580E00E949A1E0E94760508950E947B
:1009A000911D0E947A050E94A62508952F923F92DC
:1009B0004F925F926F927F928F929F92AF92BF926F
:1009C000CF92DF92EF92FF920F93CF93DF931C01B0
:1009D00029013A016B0181E0C81AD108E101CC0D6F
:1009E000DD1D1882F12CE12C8AE0882E912CA12C9F
:1009F000B12CEC14FD0498F0C101DF91CF910F915F
:100A0000FF90EF90DF90CF90BF90AF909F908F902E
:100A10007F906F905F904F903F902F900895C3010B
:100A2000B201A50194010E94722D605D603319F43A
:100A3000E114F10431F0411451046104710409F42A
:100A4000602F6A93C301B201A50194010E94722D27
:100A500029013A018FEFE81AF80ACBCF0F932091C2
:100A60000401309105012817390721F42091DC0198
:100A7000261791F090930501809304016093DC01A7
:100A80009C0150E040E0062F66E070E086ED91E0CA
:100A90000E94D6040F91089586ED91E0FBCF089552
:100AA0000E944F05089581E0089581FD02C02A9AB1
:100AB00008952A980895CF93DF93D82F0E94530565
:100AC000C82F882319F08D2F0E9455058C2FDF9198
:100AD000CF910895229A2A9A0895CF93C82F0E9401
:100AE00050058C2F0E945B05CF91089580E00E94F5
:100AF0006D0508950E9434240E946D050895CF93DA
:100B00000E943424C82F8091DD018C1779F0C093A6
:100B1000DD010E9431266093DE017093DF01809336
:100B2000E0019093E1018C2F0E946D05CF91089513
:100B3000ABE0B0E0EEE9F5E00C94DB2D4F83588795
:100B400069877A878B8761110E94ED0D1E821D8255
:100B500085E0FE013796DE01119601900D928A958F
:100B6000E1F78C819D81892B61F449815A816B81E8
:100B70007C818D819E810E94160D2B96E2E00C9463
:100B8000F72D89819A8189238F3F79F3CE010196D0
:100B90000E9401048111E9CFF0CFFC018081918195
:100BA0000E94DC0A0895662329F00E9428140E94FE
:100BB000FB1408950E948214FACFCF93C82F882384
:100BC000C9F08238C9F40E94342481FD13C089E33E
:100BD0000E94A50D0E940E0E2FEF87EE93E021508C
:100BE00080409040E1F700C0000089E30E94AD0D15
:100BF0000E940E0ECF9108958338A1F40E943424F0
:100C000080FDF8CF83E50E94A50D0E940E0E2FEF08
:100C100081EE94E0215080409040E1F700C0000058
:100C200083E5E4CF8438A1F40E94342482FDE2CF2E
:100C300087E40E94A50D0E940E0E2FEF81EE94E036
:100C4000215080409040E1F700C0000087E4CECF03
:100C50008CEF8C0F813A90F46C2F8091060190916B
:100C600007010E94C724882329F08C2F0E94AD0D14
:100C70000E940E0E8C2F0E94A50DBACF80E28C0F21
:100C8000883048F4C77081E001C0880FCA95EAF740
:100C90000E94D00DADCFEBE5EC0FE33040F4F0E077
:100CA000EF59FE4F808190E00E946924A3CFE8E5D0
:100CB000EC0FE93150F4F0E0EE0FFF1FE15DFE4F65
:100CC000808191810E948E2495CF83E38C0F8331A4
:100CD00008F090CF61E08C2F0E94D3058BCF882342
:100CE00009F456C0823879F40E94342481FF50C040
:100CF00089E30E94A50D0E940E0E89E30E94AD0DAE
:100D00000E940E0E0895833859F40E94342480FF07
:100D10003FC083E50E94A50D0E940E0E83E5EECF35
:100D2000843859F40E94342482FF32C087E40E9440
:100D3000A50D0E940E0E87E4E1CF9CEF980F913A2B
:100D4000E8F290E2980F983050F4877091E001C07B
:100D5000990F8A95EAF7892F0E94D60DD1CF9BE58E
:100D6000980F933028F490E080E00E946924089561
:100D700098E5980F993128F490E080E00E948E2445
:100D8000089593E3980F933118F460E00E94D3051F
:100D900008951F93CF93DF93182FEB010E94DD0579
:100DA000209739F4812F0E946F06DF91CF911F9118
:100DB00008958FE99FE00197F1F700C000002197A7
:100DC000EFCF70E060E0893311F460E570E00E94DD
:100DD000C9060895882321F00E94D00D0E940E0EAE
:100DE0000895882321F00E94D60D0E940E0E0895CA
:100DF000B0E0A0E0EEEFF6E00C94D42D6C01D62F1D
:100E0000C72FFC011281F580F2949FE0F9220E9425
:100E1000C60DE82E8823B9F0E12E1123A1F08C2F06
:100E2000807F803421F080E28D0F8830D0F0809177
:100E3000170382FF16C082E00E94710E0E94C60D49
:100E400091E0E82EE926BC2EB2948FE0B822FBE0B8
:100E5000FB1508F468C0EB2DF0E0E651F14D0C9461
:100E6000942DE12CF0CF0C2F0F70C07F11F0029564
:100E7000007F112399F0002359F080E28D0F883014
:100E800010F0D11107C0802F0E94D00D0E940E0ECD
:100E90008D2F41C0802F0E94E00DF8CF8D2F0E9432
:100EA0006F06002309F43FC080E28D0F883010F0F8
:100EB000D11104C0802F0E94D60D03C0802F0E9444
:100EC000E60D0E940E0E2FC00C2F0F70C07FC03297
:100ED00011F00295007FDD2381F0D13009F468C064
:100EE000112309F472C0FF2009F468C0F60185815E
:100EF00080FFCECF8F70858361C08091170382FD04
:100F000033C0112359F0002329F0802F0E94D00D07
:100F10000E940E0E80E00E94DD0505C080E00E9468
:100F20006F060111C7CFEB2DE850FF0B349720F46B
:100F30000E9434240E946D05EE2089F00E94C20DAB
:100F400080FD0DC0F60112820E94BC0D0E94E409D2
:100F5000C6010E9407090E94BC0D0E94F409CDB78A
:100F6000DEB7E9E00C94F02D112389F0F11006C0F2
:100F70000E94F00D802B0E94EA06D5CF21E0F212EC
:100F8000F7CF0E94F00D802B0E94F70DCCCFF1100F
:100F900006C00E94040E802F0E94F106C4CF31E0EB
:100FA000F31609F2802F0E94F1060E94040EBBCFB7
:100FB000112331F085E08F1508F4B5CF802FDBCFFA
:100FC00094E09F1508F4AFCFE6CFFF2021F3D9338B
:100FD00049F4FFEF27EE33E0F15020403040E1F7D5
:100FE00000C000008D2F0E946F069DCF8C2F86952C
:100FF0008695837069F0813009F095CF8D2F9C2FF5
:101000009370111102C080E090E00E948E248BCF7B
:101010008D2F9C2F9370111102C080E090E00E94F0
:10102000692481CF612F8D2F0E94D3057CCF8C2F17
:101030008370A1F5111177CF4D2F429546954770DA
:10104000440F440F2D2F2F7030E0042E02C0220FCA
:10105000331F0A94E2F790E080E0D4FF09C08FE0EC
:1010600090E002C0880F991F4A95E2F7809590950D
:10107000C695C695C370822B932BC23049F058F4A5
:10108000C13019F00E94B4094ECF0E94AB094BCF7A
:101090000E94BD0948CF0E94A80945CF869511231B
:1010A00011F08C2F8170882309F43DCF4D2F42958C
:1010B00046954770440F440F2D2F2F7030E0042EBB
:1010C00002C0220F331F0A94E2F790E080E0D4FFC1
:1010D00009C08FE090E002C0880F991F4A95E2F79F
:1010E00080959095C695C695C370822B932BC23080
:1010F00049F058F4C13019F00E941F0A14CF0E9421
:10110000160A11CF0E94280A0ECF0E94CC090BCFDD
:10111000CF70112329F08C2F0E94E4098D2F2BCF43
:101120008D2F0E94F1068C2F0E94F409FCCED23F35
:1011300051F160F4D03FB9F0D13F81F0112309F4AF
:1011400049C0F110A5CE8C2F8F7121C0D33F11F172
:10115000D43FA1F78091170382FD26C08C2F8F7199
:10116000112311F314C0112349F084E08F1508F402
:10117000DACE8C2F8F710E94060AD5CE95E09F158E
:1011800008F4D1CEF6CF8C2F8F711111CDCF0E94E4
:10119000E409C9CE112329F08C2F8F710E94D80940
:1011A000C2CE0E94D309BFCE112349F0CF718C2F3C
:1011B0000E94E40963E08C2F0E94530EB4CE81E0BC
:1011C0000E94710EE1E0EF1508F0ADCE82E00E94C2
:1011D000710EA9CEF110FBCE8C2F8F71A5CF0F937E
:1011E0001F93CF93DF93EC01688179818A810E94FC
:1011F000E70A8C010E94310A0E94A709B801CE01BA
:101200000E94F806DF91CF911F910F910895CF931F
:10121000DF93EC018B819C81892B29F08881998156
:1012200089238F3F51F4DF91CF910895CE010E9421
:10123000EF08CE010E940304F6CFCE010E945F04A6
:101240008111F4CF0E94C60D882369F38A81882317
:1012500051F38091170382FFE6CF82E00E94710E66
:10126000E2CF882321F00E94E00D0E940E0E089527
:10127000882321F00E94E60D0E940E0E089590E052
:1012800080E00E94692490E080E00E948E240E9409
:10129000ED0D0E940E0E0E9417150E94FB1408957A
:1012A0000E94B50D0E943F0908950E94DD0D0E9425
:1012B0005009089592959F70963091F058F4925F7E
:1012C0009F70923058F4803F19F030F4883E30F42B
:1012D00081E008959A5FF4CF843FD1F380E00895D0
:1012E000883EB0F3813FD1F7F3CFFC018381948135
:1012F000892B29F08081918189238F3F11F480E02F
:101300000895808191810E94DC0A0E945A09089503
:10131000A5E0B0E0EEE8F9E00C94DB2D2596E2E0E4
:101320000C94F72DA6E0B0E0E8E9F9E00C94DB2D91
:101330002696E2E00C94F72D08950E949C090895EA
:101340000E949D099093FE018093FD0108950895E8
:101350000E94A00908952091FD013091FE01822B89
:10136000932B0E94A00908952091FD013091FE0168
:10137000822393230E94A00908952091FD013091BA
:10138000FE01822793270E94A00908950E949C09CC
:1013900008950E94C60908950E94C9099093FC010E
:1013A0008093FB01089590E080E00E94CC090895AD
:1013B00021E030E0A90102C0440F551F8A95E2F7F1
:1013C000CA010E94CC09089521E030E002C0220F3A
:1013D000331F8A95E2F78091FB019091FC01822BEB
:1013E000932B0E94CC09089521E030E002C0220F27
:1013F000331F8A95E2F7209530958091FB019091FB
:10140000FC01822393230E94CC09089521E030E05F
:1014100002C0220F331F8A95E2F78091FB01909161
:10142000FC01822793270E94CC0908952091FB019B
:101430003091FC01822B932B0E94CC0908952091BE
:10144000FB013091FC01822393230E94CC09089573
:101450002091FB013091FC01822793270E94CC0947
:1014600008950895262F277091E001C0990F2A95BD
:10147000EAF723E0769567952A95E1F7660F771FDF
:10148000660F771FFA01E60FF71F50E040E0682F64
:1014900070E08191DF0111979B01042E02C0369507
:1014A00027950A94E2F721702195282729232827D8
:1014B0002C934F5F5F4F4430510559F70895A82F83
:1014C000A77023E0969587952A95E1F7880F991FD5
:1014D000880F991FFB01E80FF91F50E040E080E002
:1014E000219130E00A2E02C0369527950A94E2F742
:1014F00021703327042E01C0220F0A94EAF7822BB1
:101500004F5F5F4F4430510559F70895262F9430AF
:1015100070F48C3060F4682F70E08CE0989F600D60
:10152000711D112443EE51E0822F0E94320A08956A
:10153000292F943068F48C3058F490E063EE71E019
:101540003CE0239F800D911D11240E945F0A0895A5
:1015500080E00895B0E0A0E0E0EBFAE00C94D42D38
:101560007C010091FB011091FC018091FD019091A3
:10157000FE01082B192BCFE0D0E0CC24C394D12C52
:10158000BC2EC6010C2E02C0880F991F0A94E2F7E8
:1015900080239123892B49F4219790F7B12C8B2D2F
:1015A000CDB7DEB7E9E00C94F02DB7018C2F0E9487
:1015B0002311019789F3F3CFCF93DF93EC010E94BE
:1015C000AA0ABE010E942311DF91CF9108951F93B3
:1015D000CF93DF93EB019091E201992339F0CB0196
:1015E0000E94DC0ADF91CF911F910895882369F052
:1015F000CB010E94AA0A182F682FCE010E94860AEA
:10160000BE01812F0E942311EDCFCB010E94980AC9
:10161000182FF6CF1F93CF93DF93C091FF0116E0F1
:10162000809100028C1304C0DF91CF911F91089527
:10163000D0E01C9FF0011D9FF00D1124EF5FFD4FC6
:101640004081518162817381848195810E949209D8
:101650002196C770E5CF40913102509132026091DE
:1016600033027091340280913502909136020E94CB
:10167000920908951F93CF93DF9380913602807F64
:1016800009F049C080913302882309F444C0809155
:10169000FF01C09100026091310270913202A0916D
:1016A0003402B0913502D62FD72316E0C81799F12E
:1016B00090E0109711F0DF3F19F401968770F6CF94
:1016C000189F9001199F300D1124F901EF5FFD4F14
:1016D00041814713F2CF40814613EFCF4281411140
:1016E000ECCF438154814A1B5B0B483C510528F7E2
:1016F000809136028F70806180933602F901EA5F33
:10170000FD4F80818F708061808381E392E00E9431
:1017100007090E940A0BDF91CF911F910895A1E163
:10172000B0E0E5E9FBE00C94D32D8C0185E0F801F5
:10173000DE011D9601900D928A95E1F7F801E28095
:1017400081E3C82E82E0D82E609134027091350278
:101750006115710509F44EC1909131022091320258
:10176000892F82238F3F09F445C140815181A38095
:10177000B480F0903302F501E61BF70BFF2009F46B
:10178000EAC080913602382F307FE83CF10508F03E
:10179000A3C031116DC0FE2C251316C0941314C0C4
:1017A000E11012C08F708061809336020E942B0B73
:1017B000C6010E94070980913602F80185838F2DAA
:1017C0006196EAE00C94EF2DA114B10429F0842F66
:1017D00085238F3F09F027C180E0F82FF170DF2EBD
:1017E00080FF3CC08091FF012091000236E082130F
:1017F00015C04D875E878D859E850E94DC0A292F46
:1018000022952F702230F0F0243018F59F70F1F0FF
:10181000F8019581907FD1F4D12C1EC090E0389FC3
:10182000F001399FF00D1124EF5FFD4F61816513C9
:1018300006C06081641303C06281E6120FC0019686
:101840008770D5CF9F7011F0882331F3805E883088
:1018500018F3C8010E940709FD2CB1CFEE2009F44E
:10186000AECF80913602816080933602F12CA7CFF3
:10187000251306C0941304C0F801EE2009F487C0B4
:10188000C8010E947509882319F1EE2009F18091A1
:101890003602803270F02091310230913202388766
:1018A0002F831986BB86AA868C87CE0107960E9455
:1018B000070986E0F801A1E3B2E001900D928A9554
:1018C000E1F70E943A0B0E942B0BFF24F39477CF91
:1018D000C8010E940709F9CF311113C07A2DB98AC6
:1018E000A88A6E2D89890E94880981E392E00E946E
:1018F000070986E0F60111928A95E9F70E942B0B01
:10190000B5CF25130FC094130DC0E1100BC0F80123
:101910008583C8010E94070986E0F60111928A9525
:10192000E9F74DCFC8010E947509882389F2EE209E
:1019300079F280913602803208F4BBCF20913102D7
:10194000309132023A8329831B82BD82AC828E831E
:10195000CE010196ACCFE83CF10508F03EC0FE2C6C
:10196000EE2009F4B5CF25132AC0941328C0809126
:10197000360280FD1BC0982F907FC1F0F80185834F
:10198000903F31F0982F907F905F8F70892B8583E7
:10199000C8010E94070986E0F801A1E3B2E00190C6
:1019A0000D928A95E1F70E942B0B09CF86E0F80192
:1019B000A1E3B2E001900D928A95E1F700CFC80152
:1019C0000E947509811175CF8091360281608093E4
:1019D0003602C8010E940709F2CE7A2DB98AA88A78
:1019E0006E2D89890E94880986E0F60111928A95F8
:1019F000E9F7D9CFEE2009F46BCFC8010E94750931
:101A0000F82E882309F464CF86E0F801A1E3B2E060
:101A100001900D928A95E1F781E392E00E94CD0555
:101A20000E943A0BC0CF81E08E25D7CEACE0B0E06B
:101A3000ECE1FDE00C94DA2D4F83588769877A87B3
:101A40008B879C87CE0107960E948F0B882369F0B5
:101A50008A859B85892B39F04F815885842F852372
:101A60008F3F09F06BC016E05FC086E0FE0137963D
:101A7000DE01119601900D928A95E1F78A859B858A
:101A8000892B89F38F81988589238F3F61F320917A
:101A9000000230E0C9010196877099274091FF014B
:101AA0004817190671F40E9455091092000210920D
:101AB000FF0186E0E1E3F2E0DF011D928A95E9F79C
:101AC000D2CF96E0929FD001939FB00D1124AF5FCB
:101AD000BD4FFE01319601900D929A95E1F78093EA
:101AE00000020E940A0BBFCF819FC00111248F5FAB
:101AF0009D4F0E948F0B8823E9F0E091FF011E9F0C
:101B0000F0011124EF5FFD4F4081518162817381AB
:101B1000848195810E9492098091FF0190E0019655
:101B2000877099278093FF018091FF0190910002B7
:101B30008913DACF2C96E3E00C94F62D69857A852B
:101B40008B859C850E9492098ECF682F809106011B
:101B5000909107010E9447250895682F8091060102
:101B6000909107010E94552508958091060190915A
:101B700007010E94632508958091570285958595F8
:101B80008595089580915702877008959091570226
:101B9000977081E009F480E0089580917A020895B9
:101BA00090917A02892B80937A0208958095909182
:101BB0007A02982390937A02089510927A020895F7
:101BC00090917902892B8093790208958095909164
:101BD00079029823909379020895109279020895DA
:101BE00080915802089508950E94F30D08959091F0
:101BF000170392FF08C090915802981721F0809324
:101C000058020E94F40D089580915802882329F00B
:101C10001092580280E00E94F40D0895CF93DF9354
:101C2000E0910601F091070180917A028083E091B2
:101C30000601F0910701808190917902892B8083C0
:101C400090915802992381F0E0910601F0910701EB
:101C50008081892B808380910601909107010E94E9
:101C6000B32481110E94040EC0910601D091070196
:101C700040E250E067E372E0CE010E946B2E892BB8
:101C800059F080E2FE01A7E3B2E001900D928A953F
:101C9000E1F7CE010E944124DF91CF91089508958C
:101CA0000E944F0E08959091170392FF11C098E083
:101CB000899F90011124622B609357020E94E409CE
:101CC000809157028595859585950E94500E0895BF
:101CD0000E94E40908951092570280E00E94500E7D
:101CE0000895909157028095892380935702282F59
:101CF000277091F4282F082E000C330B921713062F
:101D000059F09091170392FF07C0859585958595A9
:101D10000E94F4090E946B0E08959091170392FBA4
:101D2000222720F9281769F080FB92F99093170376
:101D300080911603909117030E94D50E82E00E94B5
:101D4000710E08958091170382FB882780F991E036
:101D500089270E948D0E089581E00E948D0E0895BE
:101D600080E00E948D0E08956FEF7FEF90E080E09D
:101D70000E94B32E089590E080E00E948F2E21E013
:101D8000873E9E4F09F020E0822F089582E090E088
:101D90000E94812E089583E090E00E94812E089594
:101DA00084E090E00E948F2E0895BC0184E090E0D2
:101DB0000E94B32E0895AB01BC018FE090E00E9419
:101DC000A72E0895AB01BC0183E190E00E94A72EED
:101DD000089560E070E0CB010E94E20E089560E09B
:101DE00070E0CB010E94DB0E0E94E90E089567EEC1
:101DF0007EEF90E080E00E94B32E60E082E090E011
:101E00000E94952E60E083E090E00E94952E109253
:101E1000FE011092FD0160E074E184E090E00E9418
:101E2000B32E60E086E090E00E94952E6FEF87E091
:101E300090E00E94952E40E050E0BA0188E090E0EA
:101E40000E94A72E60E08DE090E00E94952E40E079
:101E500050E0BA0188E190E00E94A72E60E087E19F
:101E600090E00E94952E40E050E0BA018CE190E0B5
:101E70000E94A72E70E060E080E290E00E94B32E06
:101E800040E050E0BA0188E190E00E94A72E0E9455
:101E9000EF0E08950E94F70E0895682F8EE090E0EF
:101EA0000E94952E08950E943126609389027093B6
:101EB0008A0280938B0290938C02609385027093C8
:101EC000860280938702909388020895089508956A
:101ED0000E94670F089508950E946B0F08958DE08A
:101EE00092E10E942A240E94660F0E94680F0895C2
:101EF00081E008950E94780F0895089508950E9442
:101F00007D0F0E947E0F08950E9429120E946A058B
:101F10000E94391F08950E941C260E9405130E94EA
:101F2000840F0E94911D0E941F1C0E946C0F089537
:101F3000AAE0B0E0EEE9FFE00C94D02D0E941B1364
:101F40002DE7822E22E0922E640110E0F601E1904E
:101F5000F1906F01812F0E944F121F5F143009F41E
:101F600049C0E816F90691F380918D0281FD0E9427
:101F700058120E947A0F782E10E0812F0E944F1283
:101F80007C01F401A190B1904F018A159B0561F18C
:101F9000A826BF2400E0CC24C394D12CC5018C21F9
:101FA0009D21892BC1F07720B1F00E831F8321E0A2
:101FB000C7018C219D21892B09F420E028870E94EC
:101FC00025268160782F9A8789874E815F81688571
:101FD0008A850E9498050F5FCC0CDD1C0C30F1F651
:101FE000F4013297F182E0821F5F143031F60E94D3
:101FF000530F22C0E816F90609F0B6CF0E94252635
:102000008C0180917B0290917C0208171907A1F046
:102010008FEF89838A831B820E9425268160782F17
:102020009D838C8349815A816B818D810E949805A3
:1020300010937C0200937B020E942F220E94521C6C
:102040000E94381F0E9439150E947F052A96EDE0F4
:102050000C94EC2DCF93DF930E942811EC01811595
:1020600020E59207D0F5811530E4930708F086C08B
:10207000803E910518F58D3C910508F07DC0883AA9
:10208000910570F4853A910508F06EC08130910594
:1020900001F10097F1F00497E0F4D0E0C0E019C03E
:1020A000813C9105D0F7C85AD0E0CC0FDD1FCC5948
:1020B000DE4F0990D881C02DD4640BC081159042A9
:1020C00008F0A8C0C11581E0D80718F4C83ED105B2
:1020D00020F7CE01DF91CF910895803622E5920757
:1020E00010F5803432E5930708F052C080329245F3
:1020F00008F047C0C11582E5D80708F47DC02C2F31
:102100002695269540E2249F900111248C2F837000
:10211000C1E0D0E002C0CC0FDD1F8A95E2F7C22BF0
:10212000D32BDD68D6CF803A22E5920760F4803861
:1021300032E5930708F441C0CF71D0E0DC2FCC2703
:10214000C46FD06AC6CF803C42E5940708F449C00A
:10215000C03E82E5D80708F0A0CFDC2FCC27CC27E3
:10216000DF71C06FD06AB5CFC55AD0E0CA56DE4F16
:10217000C881D0E0D064ADCFD065ABCFDF70D06A7E
:10218000A8CFCF71D0E0DC2FCC27C16FD06AA1CF10
:10219000282F26952695277080E2289F90011124EC
:1021A0008C2F8370C1E0D0E002C0CC0FDD1F8A9578
:1021B000E2F7C22BD32BDC688CCF282F26952695EF
:1021C000277040E2249F900111248370C1E0D0E089
:1021D00002C0CC0FDD1F8A95E2F7C22BD32BDA6841
:1021E00078CF8F710E94CA11C82FD0E0DC2FCC2786
:1021F000CC27DF71D0626DCF8C2F8F710E94CA11F6
:1022000035E0D695C7953A95E1F7CF709C2FEC0154
:10221000D0695FCF8D2F8F710E94CA1190E0982FE7
:10222000882788279F719C012C2BE901E3CF462F3B
:10223000743030F46C3020F4672F0E9458030895F6
:1022400090E080E008950E9417110E942A100895DE
:1022500082389105B9F1B0F48133910509F47DC05C
:1022600048F48932910509F46DC08A32910509F468
:102270007BC008958533910509F45FC089339105CA
:1022800009F10895833E9105D9F138F4803E910516
:1022900029F1823E910579F10895863E9105D9F1A3
:1022A000873E910509F43EC0843E910541F5209199
:1022B000170321FF24C08091160384FD19C087EE07
:1022C00090E0089520911603237009F05AC02091E0
:1022D000170323FF14C089E290E0089520911603AC
:1022E00020FD38C03091170330FF09C024FF43C0E0
:1022F00090E080E008952091160322FDF7CF089525
:102300002091160322FD3AC03091170330FD39C0E9
:1023100024FFF5CFEDCF2091160323FFF0CF24FD4E
:10232000E7CFCDCF2091160323FD2EC030911703A8
:1023300031FFEECF84EE90E008952091160325FF43
:10234000DECFC9CF2091160325FD21C020911703B0
:1023500023FFD5CF89E390E0D2CF2091160326FF4B
:10236000CECF8AE290E008952091160326FFC7CFD2
:1023700081E390E0089583EE90E0089582EE90E08E
:10238000089580EE90E0089586EE90E0089585E34C
:1023900090E008959091160392FF06C0282F2871AF
:1023A0002830F9F4877F846093FF06C0282F2871B6
:1023B0002831F1F4877E84612091170320FF06C045
:1023C000382F38713830D9F4877F816021FF06C0FB
:1023D000282F28712831D1F4877E816194FD877E72
:1023E0000895282F24712430F9F68B7F8860DCCF84
:1023F000282F2471243101F78B7E8861DDCF382F9F
:102400003171313019F78E7F8860E0CF282F21712C
:10241000213121F78E7E8861E1CF80E008950E940E
:10242000B40E08950E941B138FE39CE90197F1F706
:1024300000C000000E941B1380E00E944F1280FF2A
:1024400004C00E940F120E94702608950E9412126A
:1024500008950E94BB0E811102C00E944A0F0E9483
:10246000C60E80938D020E94D00E90931703809326
:1024700016030E9426120E94CB0E90E00E94A8092B
:102480008091FB019091FC010E94C9090895089573
:102490000E944712089508950E944B120895E82F54
:1024A000F0E0EE0FFF1FE05EFC4F80819181089508
:1024B000089580EA8A95F1F7089500C008950E9472
:1024C00059120895F894E82FE295EF70F0E031A1E9
:1024D000282F2F7081E090E001C0880F2A95EAF73D
:1024E000982F9095932391A392A1892B82A37894FE
:1024F0000895CF93DF9384EF0E94621285EF0E94CC
:10250000621286EF0E94621287EF0E946212C9E98E
:10251000D1E089918F3F11F00E94621281E0C53AAB
:10252000D807B9F7DF91CF910895AF92BF92DF92AC
:10253000EF92FF920F931F93CF93DF938C01D62ED0
:10254000C62FD0E0CE018B559E4F7C01FC0120812F
:102550002F3F09F44DC0F894E22FE295EF70F0E0C0
:1025600031A12F7081E090E001C0880F2A95EAF731
:10257000932F982B91A392A18095892382A378947D
:102580000E945D12E9E9F1E045EA51E021E030E026
:10259000B12CA12C61916F3FA9F1A62FA295AF702C
:1025A000B0E090968C9190E06F7002C09595879501
:1025B0006A95E2F780FD26C0C901A82AB92A220F30
:1025C000331F4E175F0731F7F70180818F3F11F0FE
:1025D0000E94621261E0A114B10409F460E08D2D43
:1025E0000E945F12CC0FDD1FC00FD11FB982A882DD
:1025F000DF91CF911F910F91FF90EF90DF90BF90EF
:10260000AF90089590E080E0D8CF0E94791288E0E2
:10261000E0E2F3E0DF01982F1D929A95E9F7E8E1F7
:10262000F3E0DF011D928A95E9F784E00E945613DA
:102630000E9440040895A8E0B0E0E1E2F3E10C94C8
:10264000D82D8E010F5F1F4F88E0F80111928A95F7
:10265000E9F7F12C6F2DC8010E949512F394F4E074
:10266000FF12F8CF48E050E0B80188E193E00E9403
:102670006B2E21E0009709F420E0892B41F088E0DF
:10268000F801A8E1B3E001900D928A95E1F744E0EA
:1026900060E273E088E193E00E945713182F0E94D4
:1026A0004304812F2896E5E00C94F42D0895CF92F1
:1026B000DF92EF92FF921F93CF93DF936C017B0128
:1026C000C42F222349F081E0809390020E942526A6
:1026D00090938F0280938E021091900211110AC084
:1026E00010E0812FDF91CF911F91FF90EF90DF904D
:1026F000CF90089580918E0290918F020E943D2686
:10270000059770F3D0E0CC0FDD1FAE01B601C70115
:102710000E946B2E892B41F0AE01B601C7010E94C9
:10272000782E10929002DDCF10E0FBCF0E94092896
:102730000E948B0F0E94162808950E941B280E9459
:10274000980F0E94352808950E94BE250E94EF2709
:102750000E946F0F0E9496130E949D130E947F0F8C
:10276000FBCF8091970280FF0DC060910D0170E05A
:10277000660F771F6038710570F56115710569F195
:10278000862F089581FF07C060910D0184E0689F46
:10279000B0011124EFCF60910D0182FD0AC080913C
:1027A00096028823A9F020910C0160910D018217F7
:1027B00010F088E0ECCF869FC001112433E0880F31
:1027C000991F3A95E1F7622F70E00E945E2DD2CFFB
:1027D00068E070E0D5CF8FE7089581E0089580919B
:1027E000970280FF0CC06091090170E075956795B4
:1027F000759567956115710549F1862F089581FFDB
:1028000006C06091090170E075956795F3CF6091FE
:10281000090182FD0BC0909195029923A1F060916E
:10282000080180910901961738F0682F70E0603830
:10283000710500F38FE70895899FC001112470E0AE
:102840000E945E2DF4CF61E070E0D7CF81E0089563
:102850008D3C31F40E94B113819580939B020895C1
:102860008E3C19F40E94B113F8CF8F3C31F40E94D2
:10287000B113819580939A020895803D19F40E94C6
:10288000B113F8CF893D29F40E94EF1380939C0285
:1028900008958A3D21F40E94EF138195F7CF8B3D77
:1028A00031F40E94EF13819580939D0208958C3D31
:1028B00019F40E94EF13F8CF9FE2980F983070F44C
:1028C000815D990B21E030E001C0220F8A95EAF783
:1028D00080919902822B8093990208958D3D31F465
:1028E0008091970281608093970208958E3D21F434
:1028F000809197028260F7CF8F3DB9F78091970260
:102900008460F1CF40919A028D3C59F480919B02F2
:1029100087FF0DC010929B0241110BC010929602CE
:1029200008C08E3C81F480919B0218169CF34423CE
:1029300081F080919C0290919D02892B09F05AC0F0
:102940001092950208958F3C49F447FFF0CF109202
:102950009A0280919B028111ECCFE0CF803D19F467
:102960001416ACF3E4CF90919C02893D29F419161A
:10297000F4F610929C02DBCF8A3D19F497FFD7CF73
:10298000F8CF90919D028B3D29F497FFD0CF109204
:102990009D02CDCF8C3D19F41916CCF3C8CF9FE220
:1029A000980F983090F4815D990B21E030E0B901E7
:1029B00002C0660F771F8A95E2F7CB018095909150
:1029C0009902892380939902B2CF8D3D31F4809191
:1029D00097028E7F80939702AACF8E3D21F480913B
:1029E00097028D7FF7CF8F3D09F0A1CF809197029D
:1029F0008B7FF0CF08950E9425269C0190919A022A
:102A000080919B02982B21F03093940220939302A3
:102A100090919C0280919D02982B21F0309392021C
:102A20002093910288E992E00E945B24089586E059
:102A3000E8E9F2E0DF011D928A95E9F7109296022B
:102A400010929502109297020895FC0182818111E3
:102A50000EC0838181110BC08481811108C091E077
:102A60008581811101C090E0892F8170089581E0F6
:102A7000FCCFA6E0B0E0EFE3F5E10C94DA2D86E0C0
:102A8000E8E9F2E0DE01119601900D928A95E1F7F6
:102A900010929A0210929B0210929C0210929D0238
:102AA0008B819C81892B89F0809193029091940273
:102AB0000E943D26AC01909196029923C9F1809124
:102AC0000E018417150608F440C08D819E81892B64
:102AD00091F080919102909192020E943D26AC016A
:102AE00090919502992309F471C080910A0184178D
:102AF000150608F479C0BE016F5F7F4F88E992E048
:102B00000E947525811105C088E992E00E94251573
:102B100081110E94FB1486E0FE013196A8E9B2E023
:102B200001900D928A95E1F72696E3E00C94F62D3C
:102B300020910F018AE0289F900111242417350766
:102B400020F69F5F9093960202C09F3FD1F71B81B2
:102B5000112359F00E94B1139FEF11160CF491E06C
:102B6000899F802D112480939A021C81112359F092
:102B70000E94B1139FEF11160CF491E0899F802DF4
:102B8000112480939B0230919A02332309F49DCF44
:102B900020919B02222309F498CF45EB3403C00116
:102BA0001124992359F090939A0245EB2403900144
:102BB0001124332339F030939B0287CF81E0809337
:102BC0009A02F3CF81E080939B027FCF20910B018B
:102BD0008AE0289F900111242417350708F08BCF35
:102BE0009F5F9093950202C09F3FD1F71D811123F3
:102BF00059F00E94EF139FEF11160CF491E0899F9A
:102C0000802D112480939C021E81112359F00E9473
:102C1000EF139FEF11160CF491E0899F802D112482
:102C200080939D0230919C02332309F464CF20915C
:102C30009D02222309F45FCF45EB3403C001112428
:102C4000992359F090939C0245EB240390011124A1
:102C5000332339F030939D024ECF81E080939C0264
:102C6000F3CF81E080939D0246CFEF92FF920F93C6
:102C70001F93CF93DF93EB01E82FD1110EC04423B4
:102C800021F0F0E0EA57FD4FE4916E2F7E2F8E2F5A
:102C9000CDB7DEB7E6E00C94F32D0D2F10E0282F12
:102CA00030E0442329F02A573D4FF901249130E0C8
:102CB000F6E0CF9FC0011124EFEFF0E0BF010E94CA
:102CC0004A2DAB018C2F90E0880F991FA5E5A49F9A
:102CD000B001A59F700D1124861B970B982F990F9B
:102CE000980FBF01601B710B629FD001639FB00DF5
:102CF000729FB00D11248B2F9D9FB0011124672F5F
:102D00007727EF01C61BD70BBE01629FE001639FCF
:102D1000D00D729FD00D11247F01E91AF108E09EB9
:102D2000B001E19E700DF09E700D1124672F772782
:102D3000E61BF70BE29F8001E39F100DF29F100D41
:102D40001124E12F722F4230510599F048F44115BA
:102D5000510569F04130510581F0EB2F8D2F07C0EF
:102D60004430510569F080F046305105B1F76E2FBF
:102D70008FCFE22F7B2F812FFACFE22F7D2FF7CF3E
:102D8000EB2F822F712FF3CF7B2F822FED2FEFCFE1
:102D900041E00E943516089508950E94C8160895CE
:102DA000CF93DF93762FE901682F842F0E94CD16F1
:102DB000798368838A83DF91CF9108958091280376
:102DC000982F9E7F29F48170826080932803089554
:102DD0008635E8F381708465F8CF88E090E00E9442
:102DE000892E0895CF92DF92EF92FF926B017C01C2
:102DF0000E94DE16B701A60188E090E00E94A72E8F
:102E0000FF90EF90DF90CF900895E8E2F3E083E049
:102E1000808311828FEF828383831482608171812A
:102E2000828193810E94F21608958091280380FF89
:102E300002C08695089580E0089590912C03933008
:102E400018F49F5F90932C03882351F0609128031E
:102E50007091290380912A0390912B030E94F2160E
:102E6000089581E00E941D17089590912C039923E5
:102E700019F0915090932C03882351F0609128030E
:102E80007091290380912A0390912B030E94F216DE
:102E9000089581E00E943517089570E00E944A1F4E
:102EA0000895609114018091280380FF0BC08091E8
:102EB000130123E0829FC0011124835D9C4F0E9477
:102EC0004D170895809115019091160123E0829F7E
:102ED000F0011124E35DFC4F891748F7118210823D
:102EE00012828F5F3396F8CF9091280390FF0EC027
:102EF000909115012091160133E0939FF001112468
:102F0000E35DFC4F921718F00E94511708958183DA
:102F1000608342839F5F3396F5CFA3E0B0E0E3E99F
:102F2000F7E10C94DB2D9091280390FF0AC09E01DD
:102F30002F5F3F4F0E94D0164B8169818A810E948A
:102F400074172396E2E00C94F72DCF93DF93EC01F6
:102F5000EC81F0E0EF57FE4F4491E8E2F3E062814C
:102F600081810E948D178C818F5F8C83DF91CF913F
:102F70000895CF93DF93EC01E8E2F3E043816281AF
:102F80008C810E948D178C818F5F8C83DF91CF9114
:102F90000895A3E0B0E0EFECF7E10C94D92D8C019B
:102FA00080919E0281110AC09E012F5F3F4F4FEF1B
:102FB0006FEF0E94D0168A8180939E02F80164818F
:102FC000613069F080919E0240E0662361F040E04C
:102FD000623011F440919E0280E060E004C0609194
:102FE0009E0240E080E00E947417F801848190E026
:102FF000019663E070E00E945E2D84832396E4E0F6
:103000000C94F52DA3E0B0E0E8E0F8E10C94D42DA9
:10301000082FD62EE42EC22E9091280390FF29C0AF
:10302000E92FE695AE2FB0E0A755BE4F8C91809367
:10303000BC029E7F923009F59E012F5F3F4F802F8B
:103040000E94D0164B8169818A810E947417009377
:103050002903D0922A03E0922B03CC2051F06091F7
:1030600028037091290380912A0390912B030E94D9
:10307000F2162396E9E00C94F02D823019F4E090DA
:103080002B03E5CF863019F400912903E0CF893076
:10309000D9F38931E1F6E9516E2F6170B62EE695CC
:1030A000F0E0EF57FD4F1491F12C60911701F616E7
:1030B00018F00E945117CBCFF19EC001112470E08F
:1030C0000E944A2D802FB11014C0860F2091150147
:1030D000622F6F0D7727771F9B01220F331F260F5B
:1030E000371F235D3C4F4E2D6D2D0E94D016F3945B
:1030F000DCCF861BEBCFE8E2F3E09181282F438100
:1031000062818AE0890F0E940218089581E00E947E
:103110007B180895E8E2F3E09181282F43816281D2
:1031200086EF890F0E940218089581E00E948A1894
:103130000895E8E2F3E0628121E1620F08F46FEFA5
:10314000282F438181810E940218089581E00E9406
:1031500099180895E8E2F3E0628121E1621B08F426
:1031600060E0282F438181810E940218089581E048
:103170000E94AA180895E8E2F3E0438121E1420F9A
:1031800008F44FEF282F628181810E940218089570
:1031900081E00E94BB180895E8E2F3E0438121E159
:1031A000421B08F440E0282F628181810E940218AE
:1031B000089581E00E94CC18089520E00E94021832
:1031C0000895EF92FF921F93CF93DF93EC0110E0ED
:1031D000EE24EA94F12C60911701161770F00E940A
:1031E00051179A818C8190FF27C08F5F8C83DF916C
:1031F000CF911F91FF90EF90089520911501422FDC
:10320000410F5527551FCA019A01220F331F280F5E
:10321000391F235D3C4F70E0C7010E945E2D962F41
:103220008C8140912B0360912A03199F800D1124FA
:103230000E94D0161F5FCFCF8150D8CFB0E0A0E062
:10324000E4E2F9E10C94D42DFC0182810FEF80FFC0
:1032500001E010E080911701181798F00E945117B3
:103260008091A002013009F04CC0811102C0809110
:10327000170181508093A002CDB7DEB7E9E00C942E
:10328000F02DC0911501C12ED12CCC0DDD2DD11DFD
:10329000CE01880F991FC80FD91FC35DDC4F19825B
:1032A00018821A8234E0E32EF12CB12C8091A00216
:1032B0008B0D853004F18370082E000C990BC81615
:1032C000D90691F480912B038E9DA0018F9D500D06
:1032D000112455954795559547959E0160912A0370
:1032E000809129030E94D016B00EF1E0EF1AF10888
:1032F000E9F61F5FAFCF87FFDFCF90911701890FEE
:10330000DBCF90E001966091170170E00E945E2D86
:10331000B1CF0F931F93CF93DF93809115019091BD
:10332000160123E0829FF0011124E35DFC4F891711
:1033300040F1C0E0D3E060911701C61740F10E9450
:1033400051172091110180919F02820F80939F025B
:1033500090911201920F90931201191654F4082EB5
:10336000000C990B409117014150550B841795079C
:103370001CF0219520931101DF91CF911F910F91A6
:1033800008951182108212828F5F3396D0CF0C2F56
:1033900010E070E0C8010E945E2D20911501820F9F
:1033A000482F50E020919F02022E000C330B021791
:1033B0001307BCF020911201022E000C330B2017D2
:1033C00031077CF08D9F90011124235D3C4F40918B
:1033D0002B0360912A03809129030E94D016CF5FAE
:1033E000AACFFA01EE0FFF1FE40FF51FE35DFC4FBC
:1033F000118210821282F3CFB0E0A0E0E2E0FAE1A5
:103400000C94D12DEC014C81042F10E09801D801CF
:103410000E94A22D9B01AC010E94B82D4B015C01C2
:10342000E0E2F0E0E01BF10BA5E5B0E0AC019B01B0
:103430000E94B82D6B017C019F01DF010E949A2D33
:103440009B01AC010E94C32D9B01AC01280D391DCD
:103450004A1D5B1DC701B6010E94722DF22E822FFC
:1034600090E039E23F1520F143E0249F90011124C0
:1034700035952795122F109500E085E5E82EEF1879
:1034800080911701081718F10E9451179C8181E063
:10349000992319F0903219F48FEF809310018091E5
:1034A0001001890F8C83CDB7DEB7ECE00C94ED2DC5
:1034B00025E530E0B901681B790B9B01220F331F12
:1034C000260F371F37FFD4CF2F5F3F4FD1CF8E2D21
:1034D00001FD8F2D20911501622F600F7727771F37
:1034E0009B01220F331F260F371F235D3C4F412FB7
:1034F00060912A030E94D0160F5FC2CF0F931F93D3
:10350000CF93DF93EC0110E000E09091170190174A
:10351000110609F06CF40E9451178C8190E001961D
:10352000817099278C83DF91CF911F910F9108951E
:1035300020911501A801420F511D9A01220F331F3E
:10354000240F351F235D3C4F4C8160912A038091ED
:10355000290396959017110651F04CF0442349F039
:1035600040912B030E94D0160F5F1F4FCECF4423F4
:10357000B9F340E0F7CFB0E0A0E0E1ECFAE10C9461
:10358000CD2DFC016280448081E08483E1E8F1E09C
:103590007490E0E0F2E0E491C0912B03C695C1582D
:1035A000D0E0CC0FDD1FCD2FDD27812C75E0972ECD
:1035B000AA24AA94B12C55245A94E719EE2EF12C82
:1035C00080911701881638F00E945117CDB7DEB7E9
:1035D000E0E10C94E92DC82CD12C82E0861568F02E
:1035E0009C9CF0019D9CF00D1124EF55FD4F8091A6
:1035F0002903808380912A038183411023C09C9CEE
:10360000F0019D9CF00D1124EF55FD4F13821282A5
:1036100020911501C601820F911D9C01220F331FBD
:10362000280F391F235D3C4F9C9CF0019D9CF00DA1
:103630001124EF55FD4F4281618180810E94D01697
:103640008394BECF9C9C80019D9C100D11240F552E
:103650001D4FF80183818823F1F081508383859D7C
:10366000C0011124648170E00E944A2DFB01FF27F4
:10367000EF57FE4F8491E82FE719E59DC001112413
:10368000B7010E944A2D80912B03689FB00111243D
:10369000F8017283BDCF0E944E2EB5010E945E2DAF
:1036A0008C179D070CF0B4CFF2E0F61598F40E9449
:1036B0004E2EB5010E945E2DF80180830E944E2E91
:1036C00020912A032695622F70E00E945E2D280F1C
:1036D000F80121839C9CF0019D9CF00D1124EF5575
:1036E000FD4F128280912B03893C58F088EC9C9C02
:1036F000F0019D9CF00D1124EF55FD4F84838383D1
:1037000087CF8431A0F784E1F2CFE8E2F3E0808153
:103710008E7F808360817181828193810E94F21605
:103720001092BD020E94511708956091280366957A
:1037300070E04BE050E088E191E00E945E2E892B22
:1037400019F481E08093BD020E9425269093B60271
:103750008093B50208959091280390FF2BC091703B
:10376000811129C0926090932803662351F06091E3
:1037700028037091290380912A0390912B030E94C2
:10378000F21660912803669570E04BE050E088E106
:1037900091E00E945E2E892BA9F01092BD0281E07B
:1037A0008093B80240912B0360912A0380912903F2
:1037B0000E94DD1808958B3210F09465D4CF880FE5
:1037C000982BD1CF0E94951BEACF682F90912803A8
:1037D000969581E0890F8B3208F081E00E94AB1B47
:1037E000089581E00E94E51B0895682F90912803B9
:1037F00096958FEF890F09F48AE20E94AB1B08951A
:1038000081E00E94F51B089561E00E94AB1B0895C2
:10381000E8E2F3E080818160808386950E94041C49
:1038200008958091280380FF03C00E94851B08959E
:103830000E94081C089560E00E94AB1B08958091CF
:10384000BB0281112EC00E94BB0E811104C00E94D8
:103850004A0F0E9405170E94ED166093280370938B
:10386000290380932A0390932B036E7F61F40E94B7
:1038700005170E94ED166093280370932903809327
:103880002A0390932B030E94DE161092BD028091B2
:10389000280380FF03C086950E941B1C81E0809353
:1038A000BB0208950F931F93CF93DF938091BD02C6
:1038B0008823B9F18091BC02E0912803E695E81BCA
:1038C000E093B702823091F5F0E0E358FE4FE491C7
:1038D000CE2FD0E005EA17E18091B802882361F08D
:1038E0001092B8020E9425269093B6028093B502EA
:1038F0001092BA021092B9020E942526E091B502F8
:10390000F091B6028E1B9F0B8F3F9F4750F4EC0F38
:10391000FD1FF093B602E093B50285EB92E0F8014B
:103920000995DF91CF911F910F910895863049F449
:10393000F0E0E658FE4FE491CE2FD0E009EB17E11E
:10394000CBCF893051F4E695F0E0E958FE4FE49191
:10395000CE2FD0E001EE18E1BFCF8F3051F4E695C5
:10396000F0E0EC58FE4FE491CE2FD0E00EE119E1EB
:10397000B3CF853149F4F0E0EF58FE4FE491CE2FFC
:10398000D0E009E819E1A8CFC8E2D0E00CEF19E1D6
:10399000883109F4A1CF833239F4EFE6F1E0C59123
:1039A000D49109EC17E198CFC4EFD1E00EE71AE10A
:1039B000843209F491CFC0EDD7E00CEC16E18532EA
:1039C00009F08ACF8E2F63E00E943E2DE92FF0E0B0
:1039D000E459FE4FE491CE2FD0E00BEB1AE17CCFFF
:1039E000FA01811101C0FB0109950895CF93DF937E
:1039F000C82FD62F0E9415178C1748F00E94151754
:103A00008D1728F40E94F11BDF91CF9108958C2F20
:103A10000E94041CF9CF1F93CF93DF93EC01FB01AD
:103A20001281111110C00E94CD0D8272FE01E05270
:103A3000F847E531F10508F05EC0EA50F14D0C940D
:103A4000942D0E94111C812FDF91CF911F91089519
:103A500040E05CE161EF7BE10E94F01CF4CF41EFBC
:103A60005BE160E07CE1F8CF45E958E166E878E1A8
:103A7000F3CF46E858E165E978E1EECF47EB58E14E
:103A800066EA78E1E9CF46EA58E167EB78E1E4CF0E
:103A900049ED58E168EC78E1DFCF48EC58E169ED99
:103AA00078E1DACF49E457E161E377E1D5CF41E34B
:103AB00057E169E477E1D0CF81E00E94041CC3CFD5
:103AC00065E082E00E94F61CBECF68E086E0FACF97
:103AD0006EE089E0F7CF64E18FE0F4CF67E185E144
:103AE000F1CF88E1EACF62E289E1ECCF83E2E5CF72
:103AF0006AE285E2E7CF11E0A6CF86E090E00E947F
:103B0000812E0895682F86E090E00E94952E0895FA
:103B1000E9E3F3E080818470816280830E94821DEA
:103B200008950E94BB0E811104C00E944A0F0E949A
:103B3000881D0E947D1D80933903883220F0877094
:103B400080628093390390913903892F817090FFAF
:103B500004C0892F8695869586950E949A1E0895A1
:103B600080913903982F969596959695943040F4C8
:103B70009F5F990F990F990F8770892B8093390355
:103B8000809139038160809339030E94821D809166
:103B900039038695869586950E949A1E0895809190
:103BA0003903982F987F79F0885080933903887F64
:103BB00091E009F490E08091390390FB80F98093C3
:103BC00039030E94821D80913903869586958695DA
:103BD0000E949A1E08958091390380FD13C0816070
:103BE00080933903813019F489E0809339038091FF
:103BF00039030E94821D80913903869586958695AA
:103C00000E949A1E08958091390380FF08C08E7F1C
:103C1000809339030E94821D80E00E949A1E0895BD
:103C20008091390380FF03C00E94031E08950E9403
:103C3000EB1D089590913903892F86958695869579
:103C40008F5F8F7197708530E0F4880F880F880F31
:103C5000892B8093390380913903887F91E009F49F
:103C600090E08091390390FB80F9809339030E94A2
:103C7000821D809139038695869586950E949A1EAD
:103C8000089590933903E7CF853008F084E0909150
:103C900039039770282F220F220F220F922B909317
:103CA0003903987F21E009F420E09091390320FB4B
:103CB00090F9909339030E949A1E08950E94441E21
:103CC000809139030E94821D08959C01FB0182812D
:103CD000882349F12230F8E73F07F9F040F4211535
:103CE000E8E73E0769F02130384779F0089524303D
:103CF00098E7390779F058F02530384789F008956A
:103D000084E00E945E1E80E0089580E0FACF0E9469
:103D1000CF1DF9CF0E94B01DF6CF0E94101EF3CF29
:103D20000E941A1EF0CF81E00895269A2E980895D9
:103D30002E980895B0E0A0E0E0EAFEE10C94D12DC9
:103D4000C82F853098F5811132C0809180008F7D19
:103D5000809380000E94981EA0918600B0918700F9
:103D60002C2F30E00E94A22D8B019C0142E0369561
:103D70002795179507954A95D1F7809186009091E0
:103D800087006CE070E00E944A2D60177107A8F070
:103D9000C80169E070E00E944A2D70938B00609327
:103DA0008A00CDB7DEB7ECE00C94ED2DC4E0809135
:103DB0008000806280938000CFCF809186009091B8
:103DC0008700E0908600F0908700C0908600D09039
:103DD0008700C6E0D0E0BE010E944A2D060F171FE3
:103DE000211D311D4801590185E0880C991CAA1C30
:103DF000BB1C8A95D1F7C701BE010E944A2DF12C48
:103E0000E12CA7019601260F371F411D511DC50149
:103E1000B4010E94722D69017A01E0918600F0914F
:103E20008700CA01B9010E942E2D9B01AC01DF0160
:103E30000E94B82D9B01AC01C701B6010E942E2D36
:103E40002FE096958795779567952A95D1F70091FC
:103E500086001091870030E020E00617170728073A
:103E6000390708F09ACF609186007091870095CF4E
:103E700008950E94951E82E28093800089E18093DC
:103E800081008FEF9FEF90938700809386000E94C0
:103E9000911D0895539A4BB1477F5BB15860EFB7BE
:103EA000F8949B01220F331F260F371F280F391F4D
:103EB0002817390741F4EFBF8FE594E00197F1F738
:103EC00000C000000895DC016D91CD0178E05BB980
:103ED000000000C067FF4BB9660F000000C000C0C3
:103EE00000C04BB900C07A9591F7E2CFCF93DF9332
:103EF000EC01FB018281882309F4D2C09E01305776
:103F00002332310508F0B2C00E94D00E90931703FF
:103F100080931603FE01E150F047E232F10520F4F0
:103F2000E55FF04D0C94942D809116038160809391
:103F3000160393C0809117038860809317038DC088
:103F4000809116038260F3CF809116038460EFCFD7
:103F5000809116038860EBCF809117038160EDCFCD
:103F6000809117038260E9CF809116038061DFCFD3
:103F7000809116038062DBCF809116038064D7CFD7
:103F80000E945509809116038068D1CF8091160355
:103F90008C60CDCF809117038360CFCF80911603C3
:103FA0008E7FC5CF80911703877FC7CF809116037F
:103FB0008D7FBDCF809116038B7FB9CF8091160383
:103FC000877FB5CF809117038E7FB7CF809117037E
:103FD0008D7FB3CF809116038F7EA9CF809116037A
:103FE0008F7DA5CF809116038F7BA1CF0E945509AD
:103FF000809116038F779BCF80911603837F97CF95
:10400000809117038C7F99CF8091160382FB9927AB
:1040100090F921E0922790FB82F990FB83F987CFFA
:1040200080911703982F909591708E7F892B90FB2C
:1040300081F983CF90911603892F8F7B96FF80643F
:1040400076CF0E94550990911603892F97FB87F927
:1040500080586DCF81E00E944D0F809116039091A2
:1040600017030E94D50E0E94550980E0DF91CF9181
:10407000089580E0F0CF90911603892F8F7E94FFF2
:10408000806155CF90911603892F8E7F90FF8160BC
:104090004ECF90911703892F877F93FF88604DCF74
:1040A00081E0E4CFB0E0A0E0E8E5F0E20C94D62DAA
:1040B000E82FF0E0EA57FC4FD490282F269526955C
:1040C000269530E0F901EA5DFB4F0491877010E01E
:1040D000082E02C0159507950A94E2F70170112782
:1040E000F901EA5EFB4FE490F12C082E02C0F59432
:1040F000E7940A94E2F791E0E922FF24F901EA5FEC
:10410000FB4FC491D0E002C0D595C7958A95E2F7E0
:10411000C170DD270115110519F081EE0E94DD0542
:10412000E114F10419F086EE0E94DD058D2D0E9448
:10413000E106E114F10419F086EE0E946F06011504
:10414000110519F081EE0E946F06CD2B19F08CE25B
:104150000E94E106CDB7DEB7E7E00C94F22DEF92B6
:10416000FF920F931F93CF93DF93EC01162F0AE07A
:104170008881882309F454C0813009F04EC08981B8
:10418000813099F47E0122E0E20EF11C8A810E94C6
:10419000E106E7012196812F815050F3EFE9FFE01E
:1041A0003197F1F700C00000F7CF823041F47E0173
:1041B00082E0E80EF11C8A810E94DD05EACF83309F
:1041C00041F47E01E2E0EE0EF11C8A810E946F064E
:1041D000E0CF843011F02196DDCF2A81229690E045
:1041E00080E0AE014F5F5F4F2053330B2A30310523
:1041F00048F0019778F2EFE9FFE03197F1F700C05E
:104200000000F7CF089FB001099F700D1124C9016C
:10421000860F971F2981EA01E4CF0E945220BACF6E
:10422000CDB7DEB7E6E00C94F32D60E00E94AF203E
:10423000089580912301877F8093230182E00E946B
:10424000E60D8091230184FF06C08F7E80932301B9
:1042500082E00E94D00D8091230185FF06C08F7DF2
:104260008093230180E20E94D00D0E940E0E0895DB
:1042700080E008958B32910539F040F49C01245080
:1042800031092432310558F481E008958D329105C9
:1042900030F089339105C0F384369105A9F30E946B
:1042A00038210895CF93DF93EC01662319F082E063
:1042B0000E94E00DCE0190528115904308F4DD2755
:1042C000CE010E949603DF91CF9108959C01305258
:1042D0002115304308F499270E94AC030895FC018E
:1042E00023E0F695E7952A95E1F7EE71FF27E25472
:1042F000FD4F20813181AC014F70552781E090E066
:1043000002C0880F991F4A95E2F7662329F0822B95
:10431000932B918380830895809590958223932396
:10432000F8CFFC0123E0F695E7952A95E1F7EE71C9
:10433000FF27E254FD4F8F70992721E030E002C043
:10434000220F331F8A95E2F7808191812823392338
:1043500081E0232B09F480E00895EF92FF920F9300
:104360001F93CF93DF93EC017B018A01809123019E
:1043700082FF5DC02091E4023091E5022C173D07D9
:1043800019F0209709F053C0909123019B7F9093DF
:10439000230161E091FD10C08091E6029091E70257
:1043A000A701481B590B61E08091240190912501E0
:1043B0004817590708F460E061708091230160FBA1
:1043C00081F980932301C9010E946F210E94CD0DC4
:1043D00081FF08C08091230180618093230182E0E6
:1043E0000E94D60D0E94CD0D85FF08C0809123014B
:1043F00080628093230180E20E94D60D60912301A8
:1044000066956170A8018091E4029091E5020E9496
:1044100052216091230166956170A8018091E402A8
:104420009091E5020E9466210E9419210FC0CE01E1
:104430000E949121A801682FCE010E9466218091DF
:10444000E4029091E502C817D90771F3F092E702F0
:10445000E092E602CDB7DEB7E6E00C94F32D809152
:10446000230182FF19C00E9425262091E602309187
:10447000E702AC01421B530B20912401309125012E
:104480004217530748F04EED52E0BC018091E40220
:104490009091E5020E94AD21089590912301892F0A
:1044A0008E7F90FF8160809323010E9419210895DF
:1044B000809123018E7F809323010E94192108950A
:1044C00060E280912401909125010E942E05FC015B
:1044D000019620812032D9F3CF010E941521089541
:1044E000CF92DF92EF92FF921F93CF93DF93EC0175
:1044F0007B010E9425266C01F7018281882309F443
:1045000053C08091230182FF07C04EED52E0B601F7
:1045100090E080E00E94AD21C231FCE7DF0709F4A2
:1045200040C000F5C0318CE7D80789F180912401A3
:10453000909125010596C131ECE7DE0769F1CE01C6
:10454000905281159043F0F51092E5021092E4022A
:1045500011E0812FDF91CF911F91FF90EF90DF90BD
:10456000CF900895C431FCE7DF0771F038F0C53112
:104570008CE7D80721F70E944D22E1CF80912301DB
:10458000816080932301DBCF0E945822D8CF809195
:104590002401909125010597909325018093240192
:1045A000CECF0E946022CBCF809123018F7EC13E6F
:1045B000D10531F0C53ED105A1F5809123018F7D54
:1045C000809323018091230180FFC2CFB701CE01E8
:1045D0000E943A21F7011281882309F466C0112351
:1045E00009F45DC00E94CD0D182F0E94F00D812BA3
:1045F0008D7F41F11092E5021092E40260E0CE015D
:104600000E946F21A70160E0CE010E9452210E940A
:10461000F00D8D7F0E94F70D82E00E94710E10E078
:1046200098CFCE0190528115904360F6809123017E
:1046300082FF8ECF4EED52E0B60190E080E00E9406
:10464000AD2186CF86E0F701AEEDB2E001900D928C
:104650008A95E1F71092E0021092E2021092E102D4
:104660000E94CD0D182F0E94F00D812B90912301F7
:1046700081FB91F9909323010E94F00D8D7F0E94A0
:10468000F70DD093E502C093E402D092E702C09206
:10469000E60280912301846080932301BDCFA701AE
:1046A000B601CE010E94AD2154CF11114DCF50CF94
:1046B000CF93DF93EB0186319C4711F50E94CD0D1E
:1046C0009A81992399F08A7A91E009F490E0909385
:1046D000E802811109C089E20E94A50D0E940E0E18
:1046E00080E0DF91CF91089585E3F6CF8091E802D5
:1046F000811104C089E20E94AD0DF0CF85E3FBCFAC
:1047000081E0EFCF0F931F93CF93DF93C42FD22F6E
:10471000FC0182818823C9F04093EB020E94252688
:104720009093EA028093E90280E28C0F883040F493
:10473000C77081E001C0880FCA95EAF70E94EA06B7
:10474000DF91CF911F910F9108951091EB021413F7
:1047500032C08091E9029091EA020E943D26883C95
:10476000910548F5C0E2CD0F1D17B9F080E2810F29
:10477000883040F4177081E001C0880F1A95EAF77D
:104780000E94F106C83048F481E09D2F977001C067
:10479000880F9A95EAF70E94EA06802F0E94E106A8
:1047A000C83070F6D77081E001C0880FDA95EAF75B
:1047B0000E94F106C5CF80E28C0F883008F6C770E2
:1047C00081E001C0880FCA95EAF7F2CF0F93DB01B1
:1047D00088519C4787309105A0F5FC01E35DF04DC1
:1047E0000C94942D06E221EE41EE6AE17CE7CD01C6
:1047F0000E94822380E00F91089507E225EE45EEA6
:104800006BE17CE7F4CF06E221EE40EE68E17CE765
:10481000EECF07E225EE44EE69E17CE7E8CF06E261
:1048200021EE42EE6CE17CE7E2CF07E225EE46EEB8
:104830006DE17CE7DCCF08E221E045EE6EE17CE74C
:10484000D6CF12968C91882319F01092EB02D3CF19
:1048500081E0D1CF9093D5018093D40108959093B6
:10486000F1028093F0020895E091F002F091F102DC
:10487000309729F00190F081E02D0995089580E0AE
:104880000895E091F002F091F102309799F02091B3
:104890002E01222359F02091160327FF07C0DC01C7
:1048A0002C9111962C93119726E02C930280F38182
:1048B000E02D09950895E091F002F091F102309712
:1048C00039F022E0DC012C930480F581E02D09957C
:1048D0000895A3E0B0E0EFE6F4E20C94DB2D209124
:1048E000EE023091EF0228173907A1F09093EF0202
:1048F0008093EE02E091F002F091F102309751F0D6
:1049000023E029839B838A830680F781E02DCE01F3
:10491000019609952396E2E00C94F72DA3E0B0E010
:10492000E4E9F4E20C94DB2D2091EC023091ED02ED
:1049300028173907A1F09093ED028093EC02E091E3
:10494000F002F091F102309751F024E029839B832B
:104950008A830680F781E02DCE0101960995239682
:10496000E2E00C94F72DFC01329680912E01882311
:1049700021F0809116039EE187FF96E080E0915040
:1049800008F4089521912223D1F38F5FF8CF662395
:1049900001F120912E012223F1F02091160327FF2F
:1049A0001AC0462F4695469546954E3190F467704D
:1049B00021E030E002C0220F331F6A95E2F7840F36
:1049C000911DFC01828190E02823392381E0232B73
:1049D00069F480E00895FC0132960896219126172B
:1049E00021F0E817F907D1F7F4CF81E008959C0191
:1049F000FC0132969FEF80E04191461751F09F3FB6
:104A000019F4411101C0982F8F5F8630A9F79F3F9D
:104A100009F40895290F311D97FD3A95F901628334
:104A20000895FC01329608962191261303C0DF01F8
:104A300011971C92E817F907B9F70895E62FE69544
:104A4000E695E695EE3168F4E80FF92FF11D6770F1
:104A500021E030E001C0220F6A95EAF78281822BC3
:104A600082830895E62FE695E695E695EE3170F49B
:104A7000E80FF92FF11D677021E030E001C0220F2F
:104A80006A95EAF720958281282322830895209150
:104A90002E01222339F02091160327FF03C00E9424
:104AA0001E2508950E94F724089520912E012223A7
:104AB00039F02091160327FF03C00E943225089584
:104AC0000E9411250895FC01329680912E018823C1
:104AD00051F08091160387FF06C08EE1DF011D9221
:104AE0008A95E9F7089586E0F9CF46E050E00E9404
:104AF0006B2E21E0892B09F420E0822F0895089580
:104B00000E947F250895811106C081E08093F20202
:104B10000E948025089582E0F9CF83E08093F2021D
:104B20000E94802508950E948325089581E0809346
:104B3000F2020E94802508950E9496250895089506
:104B400008950E94A0250895089508950E949F2524
:104B50000895CF930E94A4250E941B130E94A525AF
:104B6000C0E08C2F0E944F12892B31F4CF5FC430EC
:104B7000C1F780E0CF91089581E0FCCF85B78068D0
:104B800085BF85B7806885BF08951F921FB61F92A5
:104B900011248F939F93AF93BF938091F302811160
:104BA00013C080913A0390913B03A0913C03B091D4
:104BB0003D034196A11DB11D80933A0390933B03A1
:104BC000A0933C03B0933D03BF91AF919F918F9110
:104BD0001F901FBE1F90189580914203843031F1C1
:104BE0000E94C7041092F30288E190E020E40FB61F
:104BF000F894A895809360000FBE2093600083B75F
:104C0000817F846083BF83B7816083BF78948895F8
:104C100083B78E7F83BF0FB6F894A895809160000C
:104C2000886180936000109260000FBE08950E941A
:104C300055090E94CF04089582E084BD93E095BD9C
:104C40009AEF97BD80936E0008952FB7F8948091E6
:104C50003A0390913B03A0913C03B0913D032FBFD9
:104C600008952FB7F89460913A0370913B038091B7
:104C70003C0390913D032FBF08959C014FB7F894DA
:104C800080913A0390913B03A0913C03B0913D0386
:104C90004FBF821B930B089578941F921FB61F92EB
:104CA00011248F939F93AF93BF9380913A03909178
:104CB0003B03A0913C03B0913D030196A11DB11DA2
:104CC00080933A0390933B03A0933C03B0933D033E
:104CD000BF91AF919F918F911F901FBE1F9018950C
:104CE00081E08093E00080E28093D8001092C900B8
:104CF0008FE19EE40197F1F700C0000087E090EBA0
:104D0000DC0180934B0390934C03A0934D03B0932D
:104D10004E0388E19CE00FB6F894A895809360005C
:104D20000FBE90936000FFCF88E19CE00FB6F8942F
:104D3000A895809360000FBE90936000FFCF809194
:104D4000140308959B01BA01909142039430E9F451
:104D50008F708093E9009FEF8091E800915085FD6E
:104D600006C085ED8A95F1F700009111F5CF80918D
:104D7000E80085FF0AC050E040E0C9010E94A72872
:104D80008091E8008E778093E800089543E050E03A
:104D9000BC0182E00E94A226089546E050E0BC01DA
:104DA00082E00E94A2260895CF93DF93EC018091C8
:104DB0002E01811111C048E050E0BE0181E00E9447
:104DC000A22680E2FE01A4EFB2E001900D928A9546
:104DD000E1F7DF91CF9108958091160387FF05C019
:104DE00040E282E050E0BE01EACF48E081E0FACF45
:104DF00080914103811109C00E94372A0E94942AA0
:104E00008091E20084608093E20008951092410353
:104E100008950E949625089560913E0381E06111F6
:104E200001C080E00E948D2508959091420381E0A9
:104E3000943009F080E060913E030E94932508952C
:104E400042E061EC81E00E94B32942E261EC82E041
:104E50000E94B3299091420381E0943009F080E0F0
:104E600060913E030E94832508958091440383301E
:104E700009F461C030F48130D1F1823009F49EC070
:104E800008958A3009F48AC08B3009F46FC08930E4
:104E900009F050C080914303813209F04BC08091EA
:104EA000470390914803029708F044C08091E800BE
:104EB000877F8093E8008091E80082FF37C090915F
:104EC000F3008091F200029731F48091F10081307B
:104ED00011F0863021F48091F100809314038091C9
:104EE000E8008B778093E8000E94E72923C0809137
:104EF0004303813AF9F48091E800877F8093E800CA
:104F00008091470390914803892B61F460E284EF1C
:104F100092E070E00E94F6288091E8008B77809301
:104F2000E800089560E090E080E0F3CF80914203D4
:104F30008111C1CF089580914303813AD9F78091BF
:104F4000470390914803892BA9F78091E800877F58
:104F50008093E8008091E80080FFFCCF80912E01D3
:104F60008093F1008091E8008E77BCCF809143035D
:104F7000813201F78091470390914803892BD1F644
:104F80008091E800877F8093E8000E94E729809164
:104F9000450380932E010E94550908958091430393
:104FA000813241F68091E800877F8093E8000E947B
:104FB000E729809146038093150308958091430368
:104FC000813A09F0B7CF8091E800877F8093E800AD
:104FD0008091E80080FFFCCF80911503C1CF84B79A
:104FE000877F84BF0FB6F894A89580916000886190
:104FF00080936000109260000FBE80E890E00FB6D2
:10500000F89480936100909361000FBE0E949C25EC
:1050100008950E94372A0E94942AE2EEF0E08081EF
:105020008460808378940E94132D089586E291E035
:105030000E942F24089580914203853031F480919D
:105040004203853019F00E94172608950E94EC252E
:1050500080914003882399F30E94A925882379F33E
:105060000E9491280E945509EACF08950E9439288C
:105070000895292F33272330310519F168F42130A1
:10508000310509F444C02230310509F445C090E0EF
:1050900080E030E020E025C02132310549F12232A4
:1050A0003105A9F780E490E02FE535E06115710541
:1050B000C1F086EB90E029EA34E06130710589F0B7
:1050C000E6CF99278130910581F0009729F002976A
:1050D000F1F6E6E3F4E002C0E8E5F4E0849190E064
:1050E0009F01FA01318320830895E4E4F4E0F6CFD0
:1050F00089E090E02EE634E06115710591F389E0D6
:1051000090E027E834E06130710559F3C0CF82E1C7
:1051100090E027E934E0E5CF8BE390E02CE534E044
:10512000E0CF80E189BD82E189BD09B400FEFDCFF9
:105130008091D8008F7D8093D8008091E0008260BC
:105140008093E0008091E00081FDFCCF0895AF9254
:10515000BF92CF92DF92FF920F931F93CF93DF9373
:105160006C01EB018A010E94062AF82E811123C0EE
:105170000115110539F0F80180819181C81BD90B07
:10518000C80ED91EB12CA12C2097A9F08091E8005F
:1051900085FD22C08091E8008E778093E80001159C
:1051A0001105A1F0F80180819181A80EB91EB1828C
:1051B000A08285E0F82E8F2DDF91CF911F910F9166
:1051C000FF90DF90CF90BF90AF9008950E94062A85
:1051D0008823D1F2F82EEFCFF60181916F018093F1
:1051E000F1002197FFEFAF1ABF0ACECFFC018091EB
:1051F000490390914A0386179707A0F0611571053E
:1052000029F49091E8009E779093E80090E0611572
:10521000710551F4911108C08091E80082FF34C0FB
:1052200080E00895BC01F2CF809142038823C1F150
:105230008530C1F18091E80083FD30C08091E800A5
:1052400082FDEACF8091E80080FFE1CF8091F300FA
:105250002091F200382F6115710519F028303105C1
:1052600058F091E02830310509F090E02091E800F5
:105270002E772093E800CBCF81918093F10061508D
:1052800071092F5F3F4FE7CF80914203882341F0A0
:10529000853041F08091E80083FFBECF81E0089522
:1052A00082E0089583E00895FC0180914903909184
:1052B0004A0386179707A0F06115710529F48091BC
:1052C000E8008E778093E80090E06115710551F455
:1052D000911108C08091E80082FF35C080E00895F8
:1052E000BC01F2CF809142038823C9F18530C9F116
:1052F0008091E80083FD31C08091E80082FDEACF13
:105300008091E80080FFE1CF8091F3002091F200CE
:10531000382F6115710519F02830310558F091E0EA
:105320002830310509F090E08091E8008E77809375
:10533000E800CBCF84918093F100319661507109E0
:105340002F5F3F4FE6CF80914203882341F08530A5
:1053500041F08091E80083FFBDCF81E0089582E0B5
:10536000089583E00895982F973028F08F708093E8
:10537000E90081E008959093E900242F762F50E012
:10538000981731F07091EC002091ED005091F000F1
:1053900021FD02C09F5FE8CF3091EB003E7F30934C
:1053A000EB003091ED003D7F3093ED003091EB004C
:1053B00031603093EB007093EC002093ED0050933C
:1053C000F0002091EE0027FDE5CF80E00895809168
:1053D000430387FF13C08091E80082FF06C08091DD
:1053E000E8008B778093E80004C08091420381112C
:1053F000F2CF0895809142038823D9F38091E80089
:1054000080FFF8CF8091E8008E77ECCF2091E40008
:105410003091E50095E6A9012091EC00822F817082
:1054200020FF06C08091E80080FF06C080E008955C
:105430002091E80022FD1AC080914203882389F060
:10544000853089F08091EB0085FD0FC02091E4004C
:105450003091E50042175307F9F29150E1F684E0EC
:10546000089582E0089583E0089581E008950E9400
:10547000A62A0E94AE2AE0EEF0E08081816080835F
:10548000E8EDF0E080818F77808319BCA7EDB0E074
:105490008C918E7F8C9380818F7E808310924103CC
:1054A00008950F931F93CF93DF930E94A62A0E9423
:1054B000AE2AC8EDD0E088818F77888388818068A4
:1054C000888388818F7D888319BC10924203109253
:1054D0003E031092400310923F0300EE10E0F801EB
:1054E00080818B7F808388818160888342E060E057
:1054F00080E00E94B329E1EEF0E080818E7F80831E
:10550000E2EEF0E08081816080838081886080832A
:10551000F80180818E7F8083888180618883DF911C
:10552000CF911F910F910895E8EDF0E080818F7E7B
:105530008083E7EDF0E080818160808384E082BF3A
:1055400081E0809341030E94512A0895E8EDF0E044
:1055500080818E7F80831092E20008951092DA009D
:105560001092E10008951F920F920FB60F9211242E
:105570002F933F934F935F936F937F938F939F935B
:10558000AF93BF93EF93FF938091E10082FF0BC035
:105590008091E20082FF07C08091E1008B7F8093C1
:1055A000E1000E94122D8091DA0080FF19C08091E5
:1055B000D80080FF15C08091DA008E7F8093DA00DA
:1055C0008091D90080FF96C080E189BD82E189BDCC
:1055D00009B400FEFDCF81E0809342030E94F826CB
:1055E0008091E10080FF19C08091E20080FF15C02A
:1055F0008091E2008E7F8093E2008091E2008061E2
:105600008093E2008091D80080628093D80019BC1A
:1056100085E0809342030E940C278091E10084FF83
:105620002BC08091E20084FF27C080E189BD82E128
:1056300089BD89B5982F917080FFFBCF8091D800EC
:105640008F7D8093D8008091E1008F7E8093E10070
:105650008091E2008F7E8093E2008091E200816081
:105660008093E20080913E03882309F449C084E0DE
:10567000809342030E9415278091E10083FF29C097
:105680008091E20083FF25C08091E100877F8093B5
:10569000E10082E08093420310923E038091E1009A
:1056A0008E7F8093E1008091E2008E7F8093E20004
:1056B0008091E20080618093E20042E060E080E05F
:1056C0000E94B3298091F00088608093F0000E94CE
:1056D0000927FF91EF91BF91AF919F918F917F919A
:1056E0006F915F914F913F912F910F900FBE0F904F
:1056F0001F90189519BC109242030E94062770CF84
:105700008091E30087FD93E090934203B3CF1F9213
:105710000F920FB60F9211242F933F934F935F93E5
:105720006F937F938F939F93AF93BF93CF93DF93A9
:10573000EF93FF93D091E900DF708091EC00C82FC8
:10574000C17080FDC0E81092E9008091F000877F71
:105750008093F00078940E94CB2B1092E900809106
:10576000F00088608093F000CD2BCF70C093E900EB
:10577000FF91EF91DF91CF91BF91AF919F918F9169
:105780007F916F915F914F913F912F910F900FBE3D
:105790000F901F901895AAE2B0E0E1EDFBE20C94A7
:1057A000DA2D83E493E02091F100FC012193CF01F5
:1057B000F3E08B349F07B9F70E9435278091E8000A
:1057C00083FF1EC180914303909144039A3008F0F7
:1057D00017C1E92FF0E0EC5CF04D0C94942D80386B
:1057E00099F0823809F00CC1809147038F7087309F
:1057F00008F006C18093E9008091EB0085FB8827C3
:1058000080F91092E90006C080913F039091400317
:10581000911182609091E800977F9093E8008093C7
:10582000F1001092F1008091E8008E77E5C08823A6
:1058300009F4D3C0823009F0E3C08091450381119F
:10584000D6C0809147038F702FEF280F263008F0C5
:10585000D7C08093E9002091EB0020FFC8C09330AF
:1058600031F48091EB0080628093EB00C0C0909196
:10587000EB0090619093EB0021E030E001C0220F3B
:105880008A95EAF72093EA001092EA008091EB00F3
:105890008860EACF8111B4C0109145031F778091D1
:1058A000E3008078812B8093E3008091E800877F7C
:1058B0008093E8000E94E7298091E80080FFFCCFF8
:1058C0008091E30080688093E30082E0111183E01F
:1058D0008093420395C08058823008F091C0809137
:1058E0004503909146038C3D23E09207A1F583E0A8
:1058F0008A838AE289834FB7F894DE01139620E009
:105900003EE051E2E32FF0E050935700E49120FF96
:1059100003C0E295EF703F5FEF708E2F90E0EA30AA
:10592000C0F0C7968D939D932F5F243159F74FBFD9
:105930008091E800877F8093E8006AE270E0CE0102
:1059400001960E94F6288091E8008B778093E8000A
:1059500057C0C096E7CF6091470370914803AE01EE
:105960004F5F5F4F0E943628BC01892B09F448C065
:105970009091E800977F9093E80089819A810E9436
:105980005429E1CF8038E1F58091E800877F80934A
:10599000E80080913E038093F10045CF811130C033
:1059A00090914503923060F58091E800877F809365
:1059B000E80090933E030E94E72980913E038823EC
:1059C00011F084E005C08091E30087FDFACF81E00B
:1059D000809342030E94202713C0809145038130A9
:1059E00079F481E0933009F080E0809340031092D5
:1059F000E9008091E800877F8093E8000E94E72912
:105A00008091E80083FF0AC08091E800877F80933F
:105A1000E8008091EB0080628093EB00AA96E3E0BF
:105A20000C94F62D0895CF93809142038823A1F022
:105A3000C091E900CF709091EC00892F817090FDAA
:105A400080E8C82B1092E9008091E80083FD0E9455
:105A5000CB2BCF70C093E900CF910895DB018F93DA
:105A60009F930E94B82DBF91AF91A29F800D911D71
:105A7000A39F900DB29F900D11240895991B79E07A
:105A800004C0991F961708F0961B881F7A95C9F7CE
:105A900080950895AA1BBB1B51E107C0AA1FBB1F1D
:105AA000A617B70710F0A61BB70B881F991F5A95AA
:105AB000A9F780959095BC01CD01089597FB072E1D
:105AC00016F4009407D077FD09D00E944A2D07FCF8
:105AD00005D03EF4909581959F4F089570956195FE
