:100000000C94C2010C94DF010C94DF010C94DF010D
:100010000C94DF010C94DF010C94DF010C94DF01E0
:100020000C94DF010C94DF010C9414200C94E82054
:100030000C94391B0C94DF010C94DF010C94DF014C
:100040000C94DF010C94DF010C94DF010C94DF01B0
:100050000C94DF010C94C01B0C94DF010C94DF01A5
:100060000C94DF010C94DF010C94DF010C94DF0190
:100070000C94DF010C94DF010C94DF010C94DF0180
:100080000C94DF010C94DF010C94DF010C94DF0170
:100090000C94DF010C94DF010C94DF010C94DF0160
:1000A0000C94DF010C94DF010C94DF012B00140091
:1000B0001A000800150017001C0018000C001200A0
:1000C00013002A00290004001600070009000A0096
:1000D0000B000D000E000F002D002800E1001D0098
:1000E0001B00060019000500110010003600370043
:1000F0005200E500E0003500000FE200E3002C00B4
:100100002C0021522152500051004F0001001E00CE
:100110001F002000210022002300240025002600CB
:10012000270001000100037802780478AC00AE00DB
:10013000AB00A800AA00A9002E00010001000100E8
:1001400001003300010001003100340030003800AC
:100150005200010001000100010001000100010046
:10016000010001000100500051004F00000000009C
:10017000000000002A2B2800000000000000000002
:100180000000000000000029000000002C1E3420A8
:10019000212224342627252E362D3738271E1F20CE
:1001A0002122232425263333362E37381F04050613
:1001B0000708090A0B0C0D0E0F1011121314151657
:1001C0001718191A1B1C1D2F3130232D3504050655
:1001D0000708090A0B0C0D0E0F1011121314151637
:1001E0001718191A1B1C1D2F3130354C0000000048
:1001F00000000000000000000000000000000000FF
:1002000000000000000000000000000000000000EE
:100210007E0F00D4FFFFFFC7000000780E034300ED
:100220006F006E0074007200610000000E03430056
:1002300061007200740065006C0000000403090492
:1002400009023B00020100A0FA09040000010301B9
:100250000100092111010001224000070581030866
:10026000000109040100010300000009211101003F
:100270000122B600070582032000011201000200DE
:1002800000000854430100010001020001050109BA
:1002900002A10185020901A100050919012908151A
:1002A0000025019508750181020501093009311504
:1002B00081257F95027508810609381581257F956E
:1002C0000175088106050C0A38021581257F950104
:1002D00075088106C0C005010980A10185031901C7
:1002E0002AB700150126B700950175108100C005D9
:1002F0000C0901A101850419012AA002150126A0FB
:1003000002950175108100C005010906A10185064D
:10031000050719E029E715002501950875018102F7
:100320000507190029EF1500250195F075018102D7
:1003300005081901290595057501910295017503B7
:100340009101C005010906A101050719E029E7157A
:100350000025019508750181029501750881010547
:1003600007190029FF150026FF0095067508810072
:100370000508190129059505750191029501750377
:100380009101C00011241FBECFEFDAE0DEBFCDBF68
:1003900011E0A0E0B1E0EEE5F7E402C005900D92B7
:1003A000A239B107D9F722E0A2E9B1E001C01D925C
:1003B000A73DB207E1F70E9459120C946E230C94EA
:1003C0000000CF93FB0182302EE79207A9F0833023
:1003D0002EE79207F1F0C1E081309E47B9F4C28167
:1003E00081E0CC2361F00E94A30843E062E081E059
:1003F0000E940B03C0E00AC0C28182E0F2CF0E94DB
:10040000B30843E062E081E00E940B038C2FCF91A0
:100410000895C28183E0CC2319F00E94A308EACF9B
:100420000E94B308F3CF8230B8F46430A8F44C30A3
:1004300098F450E09CE0699F400D511D1124FA0191
:1004400090E3899FE00DF11D1124EE0FFF1FE4558D
:10045000FF4F85919491089580E090E008950E9467
:10046000130208959C013A9521153F4150F5FC0176
:10047000EE27F170BC0166277270AC0144275470FE
:100480009C012227387094FF0EC080E1EF2B09F405
:1004900080E0672B09F08062452B09F08064232BF4
:1004A00089F08068089581E0EF2B09F480E0672BE4
:1004B00009F08260452B09F08460232B19F08860D5
:1004C000089580E00895CF93DF93EB010E943202FC
:1004D000FE010995DF91CF910895CF93DF93EC0151
:1004E000805E9109089720F060EF77E0209711F483
:1004F00069EA75E0CE010E9463028C2F0E949C0481
:10050000DF91CF910895CF93DF93EC010E942E05E8
:10051000CE01805E9109089720F067EF77E0209781
:1005200011F460EB75E0CE010E946302DF91CF9180
:10053000089581E008950E94E101089508950E94C0
:100540009E020895A5E0B0E0E8EAF2E00C94DA2219
:1005500049835A833091A00189819A81311119C050
:10056000662399F0222389F00E946909182F682FC9
:1005700089819A810E94450969817A81812F0E942F
:10058000CC0F2596E3E00C94F6220E945709182F11
:10059000F3CF0E94690969817A81F1CFFC01262F8E
:1005A000408151816281738184810E94A2020895F9
:1005B00081E00895CF93DF93EC0160E00E94CE02CA
:1005C000BE010E949F02DF91CF910895E1E0F0E02B
:1005D000DF0102C0AA0FBB1F6A95E2F7BD01DF0170
:1005E00002C0AA0FBB1F4A95E2F7AD01462B572B5D
:1005F00002C0EE0FFF1F2A95E2F79A012823392344
:100600002417350719F48E2B9F2B0895E095F0954C
:100610008E239F230895242F462F682F8091B901A0
:100620009091BA010E94E6020E948B0808950E94F0
:10063000FD1008950E940111089508950E94140864
:100640000E941D032FEF84E39CE0215080409040E6
:10065000E1F700C0000008950E941E030E94E41B01
:1006600008950E941E030E94F51B08950F931F9387
:10067000CF93DF938C0161E00E94CE02EC01B801C0
:100680000E949B02811106C080E0DF91CF911F91F3
:100690000F910895B801CE010E94E4178823A1F3B9
:1006A000B801CE010E945A19882371F3B801CE0116
:1006B0000E94EA14882341F3B801CE010E94CC18AD
:1006C000882311F3F8018281882361F0C330FCE7AD
:1006D000DF07E9F058F4C115ECE7DE07A9F0C130F7
:1006E000DC47B9F0C8010E949902CFCFCB358CE727
:1006F000D807A9F0CC35ECE7DE0771F0CA35DC4746
:1007000089F70E946B0DEECF0E942C03BDCF0E9493
:10071000730D0E943103B8CF0E94610DE3CF0E9498
:100720006F0DE0CF0E94151B0E94350408950E94B2
:1007300039040E941A1B08952F923F924F925F92A4
:100740006F927F928F929F92AF92BF92CF92DF92E1
:10075000EF92FF920F93CF93DF931C0129013A018F
:100760006B0181E0C81AD108E101CC0DDD1D1882B2
:10077000F12CE12C8AE0882E912CA12CB12CEC14C8
:10078000FD0498F0C101DF91CF910F91FF90EF90A0
:10079000DF90CF90BF90AF909F908F907F906F90A1
:1007A0005F904F903F902F900895C301B201A50133
:1007B00094010E94A322605D603319F4E114F104F6
:1007C00031F0411451046104710409F4602F6A93FB
:1007D000C301B201A50194010E94A32229013A019B
:1007E0008FEFE81AF80ACBCF0F93209100013091D8
:1007F00001012817390721F420919A01261791F059
:10080000909301018093000160939A019C0150E054
:1008100040E0062F66E070E084E991E00E949C03CE
:100820000F91089584E991E0FBCF08950E9415048B
:10083000089581E008950895CF93DF93D82F0E9403
:100840001904C82F882319F08D2F0E941B048C2FA8
:10085000DF91CF9108950895CF93C82F0E94160479
:100860008C2F0E941C04CF91089580E00E942C04DC
:1008700008950E94A8190E942C040895CF930E9405
:10088000A819C82F80919B018C1779F0C0939B0108
:100890000E94A51B60939C0170939D0180939E0113
:1008A00090939F018C2F0E942C04CF910895ABE070
:1008B000B0E0EDE5F4E00C94DB224F8358876987C4
:1008C0007A878B8761110E94AC0C1E821D8285E0A5
:1008D000FE013796DE01119601900D928A95E1F79F
:1008E0008C819D81892B61F449815A816B817C8146
:1008F0008D819E810E94D50B2B96E2E00C94F7220D
:1009000089819A8189238F3F79F3CE0101960E94D4
:10091000D8028111E9CFF0CFFC01808191810E9442
:100920009B090895662329F00E94DD120E94B013EE
:1009300008950E943713FACFCF93C82F8823C9F0A8
:100940008238C9F40E94A81981FD13C089E30E946E
:10095000640C0E94CD0C2FEF87EE93E02150804075
:100960009040E1F700C0000089E30E946C0C0E94F7
:10097000CD0CCF9108958338A1F40E94A81980FD71
:10098000F8CF83E50E94640C0E94CD0C2FEF81EE1E
:1009900094E0215080409040E1F700C0000083E5E2
:1009A000E4CF8438A1F40E94A81982FDE2CF87E445
:1009B0000E94640C0E94CD0C2FEF81EE94E0215038
:1009C00080409040E1F700C0000087E4CECF8CEF7C
:1009D0008C0F813A90F46C2F809102019091030169
:1009E0000E943B1A882329F08C2F0E946C0C0E94D5
:1009F000CD0C8C2F0E94640CBACF80E28C0F883013
:100A000048F4C77081E001C0880FCA95EAF70E94D8
:100A10008F0CADCFEBE5EC0FE33040F4F0E0E65B9C
:100A2000FE4F808190E00E94DD19A3CFE8E5EC0F36
:100A3000E93150F4F0E0EE0FFF1FE85EFE4F8081D9
:100A400091810E94021A95CF83E38C0F833108F0C5
:100A500090CF61E08C2F0E9492048BCF882309F401
:100A600056C0823879F40E94A81981FF50C089E3EA
:100A70000E94640C0E94CD0C89E30E946C0C0E94C1
:100A8000CD0C0895833859F40E94A81980FF3FC007
:100A900083E50E94640C0E94CD0C83E5EECF843880
:100AA00059F40E94A81982FF32C087E40E94640CA6
:100AB0000E94CD0C87E4E1CF9CEF980F913AE8F2C9
:100AC00090E2980F983050F4877091E001C0990F30
:100AD0008A95EAF7892F0E94950CD1CF9BE5980F54
:100AE000933028F490E080E00E94DD19089598E5A5
:100AF000980F993128F490E080E00E94021A08953E
:100B000093E3980F933118F460E00E9492040895E3
:100B10001F93CF93DF93182FEB010E949C04209723
:100B200039F4812F0E942E05DF91CF911F910895F6
:100B30008FE99FE00197F1F700C000002197EFCF08
:100B400070E060E0893311F460E570E00E94880590
:100B50000895882321F00E948F0C0E94CD0C0895E7
:100B6000882321F00E94950C0E94CD0C0895B0E0DE
:100B7000A0E0EDEBF5E00C94D4226C01D62FC72F4A
:100B8000FC011281F580F2949FE0F9220E94850C0D
:100B9000E82E8823B9F0E12E1123A1F08C2F807F5D
:100BA000803421F080E28D0F8830D0F08091B50242
:100BB00082FF16C082E00E94300D0E94850C91E0F9
:100BC000E82EE926BC2EB2948FE0B822FBE0FB159C
:100BD00008F468C0EB2DF0E0E059FC4D0C94C52200
:100BE000E12CF0CF0C2F0F70C07F11F00295007F29
:100BF000112399F0002359F080E28D0F883010F016
:100C0000D11107C0802F0E948F0C0E94CD0C8D2F18
:100C100041C0802F0E949F0CF8CF8D2F0E942E057F
:100C2000002309F43FC080E28D0F883010F0D1110D
:100C300004C0802F0E94950C03C0802F0E94A50C39
:100C40000E94CD0C2FC00C2F0F70C07FC03211F04E
:100C50000295007FDD2381F0D13009F468C01123B3
:100C600009F472C0FF2009F468C0F601858180FF95
:100C7000CECF8F70858361C08091B50282FD33C075
:100C8000112359F0002329F0802F0E948F0C0E941D
:100C9000CD0C80E00E949C0405C080E00E942E05DF
:100CA0000111C7CFEB2DE850FF0B349720F40E94C1
:100CB000A8190E942C04EE2089F00E94810C80FD6E
:100CC0000DC0F60112820E947B0C0E94A308C6018F
:100CD0000E94C6070E947B0C0E94B308CDB7DEB706
:100CE000E9E00C94F022112389F0F11006C00E9473
:100CF000AF0C802B0E94A905D5CF21E0F212F7CFCF
:100D00000E94AF0C802B0E94B60CCCCFF11006C015
:100D10000E94C30C802F0E94B005C4CF31E0F316AF
:100D200009F2802F0E94B0050E94C30CBBCF112393
:100D300031F085E08F1508F4B5CF802FDBCF94E03C
:100D40009F1508F4AFCFE6CFFF2021F3D93349F444
:100D5000FFEF27EE33E0F15020403040E1F700C0D4
:100D600000008D2F0E942E059DCF8C2F8695869595
:100D7000837069F0813009F095CF8D2F9C2F93708F
:100D8000111102C080E090E00E94021A8BCF8D2FDB
:100D90009C2F9370111102C080E090E00E94DD1939
:100DA00081CF612F8D2F0E9492047CCF8C2F837076
:100DB000A1F5111177CF4D2F429546954770440FFD
:100DC000440F2D2F2F7030E0042E02C0220F331F4E
:100DD0000A94E2F790E080E0D4FF09C08FE090E051
:100DE00002C0880F991F4A95E2F780959095C695A5
:100DF000C695C370822B932BC23049F058F4C13092
:100E000019F00E9473084ECF0E946A084BCF0E94CF
:100E10007C0848CF0E94670845CF8695112311F0C2
:100E20008C2F8170882309F43DCF4D2F4295469534
:100E30004770440F440F2D2F2F7030E0042E02C056
:100E4000220F331F0A94E2F790E080E0D4FF09C03C
:100E50008FE090E002C0880F991F4A95E2F78095D5
:100E60009095C695C695C370822B932BC23049F0DE
:100E700058F4C13019F00E94DE0814CF0E94D50842
:100E800011CF0E94E7080ECF0E948B080BCFCF70C6
:100E9000112329F08C2F0E94A3088D2F2BCF8D2F8B
:100EA0000E94B0058C2F0E94B308FCCED23F51F1B6
:100EB00060F4D03FB9F0D13F81F0112309F449C06B
:100EC000F110A5CE8C2F8F7121C0D33F11F1D43FEB
:100ED000A1F78091B50282FD26C08C2F8F7111235E
:100EE00011F314C0112349F084E08F1508F4DACE11
:100EF0008C2F8F710E94C508D5CE95E09F1508F400
:100F0000D1CEF6CF8C2F8F711111CDCF0E94A308B7
:100F1000C9CE112329F08C2F8F710E949708C2CE61
:100F20000E949208BFCE112349F0CF718C2F0E94EE
:100F3000A30863E08C2F0E94120DB4CE81E00E94C2
:100F4000300DE1E0EF1508F0ADCE82E00E94300DEB
:100F5000A9CEF110FBCE8C2F8F71A5CF0F931F93CD
:100F6000CF93DF93EC01688179818A810E94A60981
:100F70008C010E94F0080E946608B801CE010E9410
:100F8000B705DF91CF911F910F910895CF93DF9314
:100F9000EC018B819C81892B29F08881998189239F
:100FA0008F3F51F4DF91CF910895CE010E94AE079B
:100FB000CE010E94DA02F6CFCE010E9436038111E3
:100FC000F4CF0E94850C882369F38A81882351F32A
:100FD0008091B50282FFE6CF82E00E94300DE2CF21
:100FE000882321F00E949F0C0E94CD0C0895882335
:100FF00021F00E94A50C0E94CD0C089590E080E0A5
:101000000E94DD1990E080E00E94021A0E94AC0C60
:101010000E94CD0C0E94CC130E94B01308950E9430
:10102000740C0E94FE0708950E949C0C0E940F08F9
:10103000089592959F70963091F058F4925F9F704A
:10104000923058F4803F19F030F4883E30F481E05B
:1010500008959A5FF4CF843FD1F380E00895883EED
:10106000B0F3813FD1F7F3CFFC0183819481892BC9
:1010700029F08081918189238F3F11F480E00895C8
:10108000808191810E949B090E9419080895A5E022
:10109000B0E0EDE4F8E00C94DB222596E2E00C945D
:1010A000F722A6E0B0E0E7E5F8E00C94DB22269614
:1010B000E2E00C94F72208950E945B0808950E94D4
:1010C0005C089093BC018093BB01089508950E9431
:1010D0005F0808952091BB013091BC01822B932BB6
:1010E0000E945F0808952091BB013091BC018223CA
:1010F00093230E945F0808952091BB013091BC01A9
:10110000822793270E945F0808950E945B08089534
:101110000E94850808950E9488089093BA018093E0
:10112000B901089590E080E00E948B08089521E0C5
:1011300030E0A90102C0440F551F8A95E2F7CA01A9
:101140000E948B08089521E030E002C0220F331F77
:101150008A95E2F78091B9019091BA01822B932B85
:101160000E948B08089521E030E002C0220F331F57
:101170008A95E2F7209530958091B9019091BA0156
:10118000822393230E948B08089521E030E002C05F
:10119000220F331F8A95E2F78091B9019091BA012D
:1011A000822793270E948B0808952091B9013091DE
:1011B000BA01822B932B0E948B0808952091B901CC
:1011C0003091BA01822393230E948B0808952091C5
:1011D000B9013091BA01822793270E948B080895A4
:1011E0000895262F277091E001C0990F2A95EAF7FC
:1011F00023E0769567952A95E1F7660F771F660FCE
:10120000771FFA01E60FF71F50E040E0682F70E00B
:101210008191DF0111979B01042E02C0369527951D
:101220000A94E2F7217021952827292328272C9357
:101230004F5F5F4F4430510559F70895A82FA770AD
:1012400023E0969587952A95E1F7880F991F880FD7
:10125000991FFB01E80FF91F50E040E080E0219169
:1012600030E00A2E02C0369527950A94E2F72170E5
:101270003327042E01C0220F0A94EAF7822B4F5F16
:101280005F4F4430510559F70895262F943070F47C
:101290008C3060F4682F70E08CE0989F600D711DB9
:1012A000112441EA51E0822F0E94F1080895292F6C
:1012B000943068F48C3058F490E061EA71E03CE0DE
:1012C000239F800D911D11240E941E09089580E026
:1012D0000895B0E0A0E0EFE6F9E00C94D4227C01A0
:1012E0000091B9011091BA018091BB019091BC01AC
:1012F000082B192BCFE0D0E0CC24C394D12CBC2EEA
:10130000C6010C2E02C0880F991F0A94E2F78023B1
:101310009123892B49F4219790F7B12C8B2DCDB7D0
:10132000DEB7E9E00C94F022B7018C2F0E94D80FB1
:10133000019789F3F3CFCF93DF93EC010E94690902
:10134000BE010E94D80FDF91CF9108951F93CF93D4
:10135000DF93EB019091A001992339F0CB010E941A
:101360009B09DF91CF911F910895882369F0CB01EC
:101370000E946909182F682FCE010E944509BE01FD
:10138000812F0E94D80FEDCFCB010E945709182F53
:10139000F6CF1F93CF93DF93C091BD0116E08091EC
:1013A000BE018C1304C0DF91CF911F910895D0E04E
:1013B0001C9FF0011D9FF00D1124E154FE4F408150
:1013C000518162817381848195810E9451082196A7
:1013D000C770E5CF4091EF015091F0016091F101AC
:1013E0007091F2018091F3019091F4010E945108F3
:1013F00008951F93CF93DF938091F401807F09F0CC
:1014000049C08091F101882309F444C08091BD0155
:10141000C091BE016091EF017091F001A091F201C5
:10142000B091F301D62FD72316E0C81799F190E0B9
:10143000109711F0DF3F19F401968770F6CF189FCF
:101440009001199F300D1124F901E154FE4F4181A3
:101450004713F2CF40814613EFCF42814111ECCFC9
:10146000438154814A1B5B0B483C510528F780910E
:10147000F4018F7080618093F401F901EC53FE4F09
:1014800080818F70806180838FEE91E00E94C6071B
:101490000E94C909DF91CF911F910895A1E1B0E0A9
:1014A000E4E5FAE00C94D3228C0185E0F801DE013A
:1014B0001D9601900D928A95E1F7F801E2808FEE7A
:1014C000C82E81E0D82E6091F2017091F301611570
:1014D000710509F44EC19091EF012091F001892F1F
:1014E00082238F3F09F445C140815181A380B4809C
:1014F000F090F101F501E61BF70BFF2009F4EAC0BB
:101500008091F401382F307FE83CF10508F0A3C04A
:1015100031116DC0FE2C251316C0941314C0E110B8
:1015200012C08F7080618093F4010E94EA09C601A5
:101530000E94C6078091F401F80185838F2D619682
:10154000EAE00C94EF22A114B10429F0842F852342
:101550008F3F09F027C180E0F82FF170DF2E80FF68
:101560003CC08091BD012091BE0136E0821315C0C0
:101570004D875E878D859E850E949B09292F229528
:101580002F702230F0F0243018F59F70F1F0F80140
:101590009581907FD1F4D12C1EC090E0389FF0014E
:1015A000399FF00D1124E154FE4F6181651306C08F
:1015B0006081641303C06281E6120FC001968770D8
:1015C000D5CF9F7011F0882331F3805E883018F3F7
:1015D000C8010E94C607FD2CB1CFEE2009F4AECFA2
:1015E0008091F40181608093F401F12CA7CF251341
:1015F00006C0941304C0F801EE2009F487C0C801A6
:101600000E943408882319F1EE2009F18091F40139
:10161000803270F02091EF013091F00138872F83F4
:101620001986BB86AA868C87CE0107960E94C607BC
:1016300086E0F801AFEEB1E001900D928A95E1F7F6
:101640000E94F9090E94EA09FF24F39477CFC801A8
:101650000E94C607F9CF311113C07A2DB98AA88A22
:101660006E2D89890E9447088FEE91E00E94C6077F
:1016700086E0F60111928A95E9F70E94EA09B5CF52
:1016800025130FC094130DC0E1100BC0F801858322
:10169000C8010E94C60786E0F60111928A95E9F713
:1016A0004DCFC8010E943408882389F2EE2079F2D8
:1016B0008091F401803208F4BBCF2091EF0130918A
:1016C000F0013A8329831B82BD82AC828E83CE01D6
:1016D0000196ACCFE83CF10508F03EC0FE2CEE20B0
:1016E00009F4B5CF25132AC0941328C08091F401C2
:1016F00080FD1BC0982F907FC1F0F8018583903F3B
:1017000031F0982F907F905F8F70892B8583C8016F
:101710000E94C60786E0F801AFEEB1E001900D929D
:101720008A95E1F70E94EA0909CF86E0F801AFEE59
:10173000B1E001900D928A95E1F700CFC8010E94B7
:101740003408811175CF8091F40181608093F40198
:10175000C8010E94C607F2CE7A2DB98AA88A6E2DDA
:1017600089890E94470886E0F60111928A95E9F777
:10177000D9CFEE2009F46BCFC8010E943408F82EAF
:10178000882309F464CF86E0F801AFEEB1E0019060
:101790000D928A95E1F78FEE91E00E948C040E94F1
:1017A000F909C0CF81E08E25D7CEACE0B0E0EBEDFB
:1017B000FBE00C94DA224F83588769877A878B87FE
:1017C0009C87CE0107960E944E0A882369F08A857D
:1017D0009B85892B39F04F815885842F85238F3F36
:1017E00009F06BC016E05FC086E0FE013796DE01AF
:1017F000119601900D928A95E1F78A859B85892B38
:1018000089F38F81988589238F3F61F32091BE01F1
:1018100030E0C9010196877099274091BD014817B2
:10182000190671F40E9414081092BE011092BD01B5
:1018300086E0EFEEF1E0DF011D928A95E9F7D2CF65
:1018400096E0929FD001939FB00D1124A154BE4FFA
:10185000FE01319601900D929A95E1F78093BE01B9
:101860000E94C909BFCF819FC001112481549E4F9E
:101870000E944E0A8823E9F0E091BD011E9FF0010D
:101880001124E154FE4F4081518162817381848132
:1018900095810E9451088091BD0190E0019687706A
:1018A00099278093BD018091BD019091BE0189135C
:1018B000DACF2C96E3E00C94F62269857A858B8545
:1018C0009C850E9451088ECF682F809102019091D3
:1018D00003010E94BB1A0895682F80910201909124
:1018E00003010E94C91A0895809102019091030199
:1018F0000E94D71A08958091150285958595859542
:10190000089580911502877008959091150297703F
:1019100081E009F480E00895809138020895909163
:101920003802892B8093380208958095909138026F
:101930009823909338020895109238020895909158
:101940003702892B80933702089580959091370252
:10195000982390933702089510923702089580914A
:101960001602089508950E94B20C08959091B50250
:1019700092FF08C090911602981721F080931602EA
:101980000E94B30C089580911602882329F01092CA
:10199000160280E00E94B30C0895CF93DF93E0918C
:1019A0000201F0910301809138028083E0910201ED
:1019B000F0910301808190913702892B808390916F
:1019C0001602992381F0E0910201F09103018081D8
:1019D000892B808380910201909103010E94271A34
:1019E00081110E94C30CC0910201D091030140E219
:1019F00050E065EF71E0CE010E941623892B59F06B
:101A000080E2FE01A5EFB1E001900D928A95E1F729
:101A1000CE010E94B519DF91CF91089508950E94DB
:101A20000E0D08959091B50292FF11C098E0899F24
:101A300090011124622B609315020E94A3088091EB
:101A400015028595859585950E940F0D08950E9434
:101A5000A30808951092150280E00E940F0D0895CA
:101A6000909115028095892380931502282F277065
:101A700091F4282F082E000C330B9217130659F0FF
:101A80009091B50292FF07C08595859585950E9436
:101A9000B3080E942A0D08959091B50292FB222767
:101AA00020F9281769F080FB92F99093B502809194
:101AB000B4029091B5020E94940D82E00E94300D14
:101AC00008958091B50282FB882780F991E08927EB
:101AD0000E944C0D089581E00E944C0D089580E015
:101AE0000E944C0D08956FEF7FEF90E080E00E9420
:101AF0005823089590E080E00E94342321E0873E3F
:101B00009E4F09F020E0822F089582E090E00E942D
:101B10002C23089583E090E00E942C23089584E014
:101B200090E00E9434230895BC0184E090E00E947C
:101B300058230895AB01BC018FE090E00E944C2334
:101B40000895AB01BC0183E190E00E944C2308950D
:101B500060E070E0CB010E94A10D089560E070E0AC
:101B6000CB010E949A0D0E94A80D089567EE7EEFAA
:101B700090E080E00E94582360E082E090E00E94C4
:101B80003A2360E083E090E00E943A231092BC0187
:101B90001092BB0160E074E184E090E00E94582361
:101BA00060E086E090E00E943A236FEF87E090E0EB
:101BB0000E943A2340E050E0BA0188E090E00E94A1
:101BC0004C2360E08DE090E00E943A2340E050E03A
:101BD000BA0188E190E00E944C2360E087E190E048
:101BE0000E943A2340E050E0BA018CE190E00E946C
:101BF0004C2370E060E080E290E00E94582340E0D7
:101C000050E0BA0188E190E00E944C230E94AE0DA2
:101C100008950E94B60D0895682F8EE090E00E940E
:101C20003A2308950E94A51B6093470270934802CF
:101C30008093490290934A02609343027093440256
:101C400080934502909346020895089508950E9456
:101C5000260E089508950E942A0E089582EC90E1C0
:101C60000E949E190E94250E0E94270E089581E071
:101C700008950E94370E0895089508950E943C0E1D
:101C80000E943D0E08950E94DE100E942B040895CC
:101C90000E94901B0E94BA110E94430E0E942B0EBC
:101CA0000895AAE0B0E0E7E5FEE00C94D0220E949F
:101CB000D0112BE3822E22E0922E640110E0F60177
:101CC000E190F1906F01812F0E9404111F5F143089
:101CD00009F449C0E816F90691F380914B0281FDA1
:101CE0000E940D110E94390E782E10E0812F0E9463
:101CF00004117C01F401A190B1904F018A159B055C
:101D000061F1A826BF2400E0CC24C394D12CC501E6
:101D10008C219D21892BC1F07720B1F00E831F8388
:101D200021E0C7018C219D21892B09F420E028871F
:101D30000E94991B8160782F9A8789874E815F81E5
:101D400068858A850E9457040F5FCC0CDD1C0C301F
:101D5000F1F6F4013297F182E0821F5F143031F620
:101D60000E94120E22C0E816F90609F0B6CF0E94B2
:101D7000991B8C018091390290913A02081719073A
:101D8000A1F08FEF89838A831B820E94991B816057
:101D9000782F9D838C8349815A816B818D810E942C
:101DA000570410933A02009339020E94A3170E942D
:101DB000EE130E943E042A96EDE00C94EC22CF93A1
:101DC000DF930E94DD0FEC01811520E59207D0F52D
:101DD000811530E4930708F086C0803E910518F520
:101DE0008D3C910508F07DC0883A910570F4853AE4
:101DF000910508F06EC08130910501F10097F1F076
:101E00000497E0F4D0E0C0E019C0813C9105D0F720
:101E1000C85AD0E0CC0FDD1FC35BDE4F0990D881DC
:101E2000C02DD4640BC08115904208F0A8C0C11524
:101E300081E0D80718F4C83ED10520F7CE01DF9124
:101E4000CF910895803622E5920710F5803432E56F
:101E5000930708F052C08032924508F047C0C11580
:101E600082E5D80708F47DC02C2F2695269540E200
:101E7000249F900111248C2F8370C1E0D0E002C018
:101E8000CC0FDD1F8A95E2F7C22BD32BDD68D6CFAE
:101E9000803A22E5920760F4803832E5930708F42F
:101EA00041C0CF71D0E0DC2FCC27C46FD06AC6CF41
:101EB000803C42E5940708F449C0C03E82E5D8075B
:101EC00008F0A0CFDC2FCC27CC27DF71C06FD06A01
:101ED000B5CFC55AD0E0C158DE4FC881D0E0D0643C
:101EE000ADCFD065ABCFDF70D06AA8CFCF71D0E0D7
:101EF000DC2FCC27C16FD06AA1CF282F269526953D
:101F0000277080E2289F900111248C2F8370C1E0FC
:101F1000D0E002C0CC0FDD1F8A95E2F7C22BD32B95
:101F2000DC688CCF282F26952695277040E2249FC9
:101F3000900111248370C1E0D0E002C0CC0FDD1FFE
:101F40008A95E2F7C22BD32BDA6878CF8F710E9483
:101F50007F10C82FD0E0DC2FCC27CC27DF71D062D8
:101F60006DCF8C2F8F710E947F1035E0D695C7956D
:101F70003A95E1F7CF709C2FEC01D0695FCF8D2FA0
:101F80008F710E947F1090E0982F882788279F717B
:101F90009C012C2BE901E3CF462F743030F46C30D8
:101FA00020F4672F0E942F02089590E080E00895AA
:101FB0000E94CC0F0E94DF0E089582389105B9F17E
:101FC000B0F48133910509F47DC048F4893291055C
:101FD00009F46DC08A32910509F47BC008958533F8
:101FE000910509F45FC08933910509F10895833E95
:101FF0009105D9F138F4803E910529F1823E910591
:1020000079F10895863E9105D9F1873E910509F44D
:102010003EC0843E910541F52091B50221FF24C0C8
:102020008091B40284FD19C087EE90E0089520915C
:10203000B402237009F05AC02091B50223FF14C0E6
:1020400089E290E008952091B40220FD38C03091DB
:10205000B50230FF09C024FF43C090E080E008953E
:102060002091B40222FDF7CF08952091B40222FD01
:102070003AC03091B50230FD39C024FFF5CFEDCF25
:102080002091B40223FFF0CF24FDE7CFCDCF2091E4
:10209000B40223FD2EC03091B50231FFEECF84EEA5
:1020A00090E008952091B40225FFDECFC9CF2091A2
:1020B000B40225FD21C02091B50223FFD5CF89E3CD
:1020C00090E0D2CF2091B40226FFCECF8AE290E0FA
:1020D00008952091B40226FFC7CF81E390E00895D0
:1020E00083EE90E0089582EE90E0089580EE90E017
:1020F000089586EE90E0089585E390E0089590912C
:10210000B40292FF06C0282F28712830F9F4877F87
:10211000846093FF06C0282F28712831F1F4877E50
:1021200084612091B50220FF06C0382F3871383005
:10213000D9F4877F816021FF06C0282F28712831BC
:10214000D1F4877E816194FD877E0895282F2471C4
:102150002430F9F68B7F8860DCCF282F247124315E
:1021600001F78B7E8861DDCF382F3171313019F75F
:102170008E7F8860E0CF282F2171213121F78E7E5C
:102180008861E1CF80E008950E94730D08950E9458
:10219000D0118FE39CE90197F1F700C000000E9485
:1021A000D01180E00E94041180FF04C00E94C4107E
:1021B0000E94E41B08950E94C71008950E947A0DA2
:1021C000811102C00E94090E0E94850D80934B026E
:1021D0000E948F0D9093B5028093B4020E94DB1091
:1021E0000E948A0D90E00E9467088091B901909149
:1021F000BA010E948808089508950E94FC1008956D
:1022000008950E9400110895E82FF0E0EE0FFF1FDF
:10221000E254FD4F808191810895089580EA8A9566
:10222000F1F7089500C008950E940E110895F894E2
:10223000E82FE295EF70F0E031A1282F2F7081E0B8
:1022400090E001C0880F2A95EAF7982F9095932384
:1022500091A392A1892B82A378940895CF93DF93C1
:1022600086EF0E94171183E30E94171182E30E94F8
:10227000171186E30E941711C2E8D1E089918F3FC0
:1022800011F00E94171181E0CE38D807B9F7DF911D
:10229000CF910895AF92BF92DF92EF92FF920F938A
:1022A0001F93CF93DF938C01D62EC62FD0E0CE01A3
:1022B00082579E4F7C01FC0120812F3F09F44DC0C5
:1022C000F894E22FE295EF70F0E031A12F7081E0F9
:1022D00090E001C0880F2A95EAF7932F982B91A3DD
:1022E00092A18095892382A378940E941211E2E83A
:1022F000F1E04EE851E021E030E0B12CA12C6191F9
:102300006F3FA9F1A62FA295AF70B0E090968C9187
:1023100090E06F7002C0959587956A95E2F780FD11
:1023200026C0C901A82AB92A220F331F4E175F07FA
:1023300031F7F70180818F3F11F00E94171161E0A2
:10234000A114B10409F460E08D2D0E941411CC0F8A
:10235000DD1FC00FD11FB982A882DF91CF911F91DD
:102360000F91FF90EF90DF90BF90AF90089590E0B5
:1023700080E0D8CF0E942E1188E0EEEBF2E0DF0182
:10238000982F1D929A95E9F7E6EBF2E0DF011D9296
:102390008A95E9F784E00E940B120E9417030895C2
:1023A000A8E0B0E0E6EDF1E10C94D8228E010F5FD9
:1023B0001F4F88E0F80111928A95E9F7F12C6F2DF3
:1023C000C8010E944A11F394F4E0FF12F8CF48E0EC
:1023D00050E0B80186EB92E00E94162321E00097BE
:1023E00009F420E0892B41F088E0F801A6EBB2E087
:1023F00001900D928A95E1F744E06EEB72E086EB76
:1024000092E00E940C12182F0E941A03812F289626
:10241000E5E00C94F4220895CF92DF92EF92FF92C0
:102420001F93CF93DF936C017B01C42F222349F0CC
:1024300081E080934E020E94991B90934D028093FD
:102440004C0210914E0211110AC010E0812FDF9151
:10245000CF911F91FF90EF90DF90CF9008958091E2
:102460004C0290914D020E94B11B059770F3D0E091
:10247000CC0FDD1FAE01B601C7010E941623892BC8
:1024800041F0AE01B601C7010E94232310924E0213
:10249000DDCF10E0FBCF0E946A1D0E94480E0E9413
:1024A000771D08950E947C1D0E94510E0E94961D6A
:1024B00008950E94321B0E94501D0E942E0E0E9401
:1024C0004B120E9452120E943E0EFBCF8091550289
:1024D00080FF0DC06091090170E0660F771F6038C2
:1024E000710570F56115710569F1862F089581FFF9
:1024F00007C06091090184E0689FB0011124EFCF0B
:102500006091090182FD0AC0809154028823A9F0DC
:102510002091080160910901821710F088E0ECCF4A
:10252000869FC001112433E0880F991F3A95E1F787
:10253000622F70E00E948F22D2CF68E070E0D5CF8A
:102540008FE7089581E008958091550280FF0CC0C7
:102550006091050170E075956795759567956115B2
:10256000710549F1862F089581FF06C0609105012C
:1025700070E075956795F3CF6091050182FD0BC002
:10258000909153029923A1F060910401809105017B
:10259000961738F0682F70E06038710500F38FE708
:1025A0000895899FC001112470E00E948F22F4CF0A
:1025B00061E070E0D7CF81E008958D3C31F40E9456
:1025C000661281958093590208958E3C19F40E94F9
:1025D0006612F8CF8F3C31F40E9466128195809389
:1025E00058020895803D19F40E946612F8CF893D83
:1025F00029F40E94A41280935A0208958A3D21F47E
:102600000E94A4128195F7CF8B3D31F40E94A41251
:10261000819580935B0208958C3D19F40E94A41269
:10262000F8CF9FE2980F983070F4815D990B21E00C
:1026300030E001C0220F8A95EAF780915702822B81
:102640008093570208958D3D31F480915502816049
:102650008093550208958E3D21F480915502826049
:10266000F7CF8F3DB9F7809155028460F1CF40914B
:1026700058028D3C59F48091590287FF0DC0109289
:10268000590241110BC01092540208C08E3C81F4D3
:102690008091590218169CF3442381F080915A02CC
:1026A00090915B02892B09F05AC010925302089551
:1026B0008F3C49F447FFF0CF1092580280915902A5
:1026C0008111ECCFE0CF803D19F41416ACF3E4CFC8
:1026D00090915A02893D29F41916F4F610925A0283
:1026E000DBCF8A3D19F497FFD7CFF8CF90915B02EB
:1026F0008B3D29F497FFD0CF10925B02CDCF8C3D5C
:1027000019F41916CCF3C8CF9FE2980F983090F4C3
:10271000815D990B21E030E0B90102C0660F771F9F
:102720008A95E2F7CB018095909157028923809397
:102730005702B2CF8D3D31F4809155028E7F809348
:102740005502AACF8E3D21F4809155028D7FF7CF9F
:102750008F3D09F0A1CF809155028B7FF0CF089576
:102760000E94991B9C019091580280915902982BCC
:1027700021F0309352022093510290915A0280919D
:102780005B02982B21F03093500220934F0286E594
:1027900092E00E94CF19089586E0E6E5F2E0DF01BD
:1027A0001D928A95E9F710925402109253021092EA
:1027B00055020895FC01828181110EC0838181112F
:1027C0000BC08481811108C091E08581811101C015
:1027D00090E0892F8170089581E0FCCFA6E0B0E001
:1027E000E4EFF3E10C94DA2286E0E6E5F2E0DE01C4
:1027F000119601900D928A95E1F71092580210926D
:10280000590210925A0210925B028B819C81892B93
:1028100089F080915102909152020E94B11BAC014B
:10282000909154029923C9F180910A0184171506E9
:1028300008F440C08D819E81892B91F080914F02D8
:10284000909150020E94B11BAC01909153029923C8
:1028500009F471C0809106018417150608F479C047
:10286000BE016F5F7F4F86E592E00E94E91A8111F9
:1028700005C086E592E00E94DA1381110E94B01330
:1028800086E0FE013196A6E5B2E001900D928A95B0
:10289000E1F72696E3E00C94F62220910B018AE002
:1028A000289F900111242417350720F69F5F9093ED
:1028B000540202C09F3FD1F71B81112359F00E949F
:1028C00066129FEF11160CF491E0899F802D112460
:1028D000809358021C81112359F00E9466129FEFC9
:1028E00011160CF491E0899F802D112480935902D8
:1028F00030915802332309F49DCF209159022223AD
:1029000009F498CF45EB3403C0011124992359F001
:102910009093580245EB240390011124332339F09E
:102920003093590287CF81E080935802F3CF81E042
:10293000809359027FCF209107018AE0289F900160
:1029400011242417350708F08BCF9F5F9093530213
:1029500002C09F3FD1F71D81112359F00E94A4129C
:102960009FEF11160CF491E0899F802D1124809324
:102970005A021E81112359F00E94A4129FEF1116D2
:102980000CF491E0899F802D112480935B0230919B
:102990005A02332309F464CF20915B02222309F405
:1029A0005FCF45EB3403C0011124992359F0909374
:1029B0005A0245EB240390011124332339F030935C
:1029C0005B024ECF81E080935A02F3CF81E0809387
:1029D0005B0246CFCF93DF93EC01FB01828188231A
:1029E00009F4D2C09E0130572332310508F0B2C03D
:1029F0000E948F0D9093B5028093B402FE01E150C6
:102A0000F047E232F10520F4E458FC4D0C94C52265
:102A10008091B40281608093B40293C08091B5022A
:102A200088608093B5028DC08091B4028260F3CF3C
:102A30008091B4028460EFCF8091B4028860EBCFC4
:102A40008091B5028160EDCF8091B5028260E9CFBF
:102A50008091B4028061DFCF8091B4028062DBCFCD
:102A60008091B4028064D7CF0E9414088091B40290
:102A70008068D1CF8091B4028C60CDCF8091B502B7
:102A80008360CFCF8091B4028E7FC5CF8091B50295
:102A9000877FC7CF8091B4028D7FBDCF8091B40274
:102AA0008B7FB9CF8091B402877FB5CF8091B5027B
:102AB0008E7FB7CF8091B5028D7FB3CF8091B40266
:102AC0008F7EA9CF8091B4028F7DA5CF8091B40273
:102AD0008F7BA1CF0E9414088091B4028F779BCF87
:102AE0008091B402837F97CF8091B5028C7F99CF7C
:102AF0008091B40282FB992790F921E0922790FB04
:102B000082F990FB83F987CF8091B502982F909539
:102B100091708E7F892B90FB81F983CF9091B402C5
:102B2000892F8F7B96FF806476CF0E941408909146
:102B3000B402892F97FB87F980586DCF81E00E94FE
:102B40000C0E8091B4029091B5020E94940D0E94E7
:102B5000140880E0DF91CF91089580E0F0CF90914C
:102B6000B402892F8F7E94FF806155CF9091B4027B
:102B7000892F8E7F90FF81604ECF9091B502892F73
:102B8000877F93FF88604DCF81E0E4CFB0E0A0E085
:102B9000ECECF5E10C94D622E82FF0E0E459FE4F7E
:102BA000D490282F26952695269530E0F901E45FEC
:102BB000FD4F0491877010E0082E02C0159507950F
:102BC0000A94E2F701701127F901E450FE4FE490F6
:102BD000F12C082E02C0F594E7940A94E2F791E0F4
:102BE000E922FF24F901E451FE4FC491D0E002C074
:102BF000D595C7958A95E2F7C170DD2701151105B6
:102C000019F081EE0E949C04E114F10419F086EEA3
:102C10000E949C048D2D0E94A005E114F10419F07E
:102C200086EE0E942E050115110519F081EE0E9415
:102C30002E05CD2B19F08CE20E94A005CDB7DEB792
:102C4000E7E00C94F222EF92FF920F931F93CF9341
:102C5000DF93EC01162F0AE08881882309F454C021
:102C6000813009F04EC08981813099F47E0122E0E3
:102C7000E20EF11C8A810E94A005E7012196812FB6
:102C8000815050F3EFE9FFE03197F1F700C0000009
:102C9000F7CF823041F47E0182E0E80EF11C8A8198
:102CA0000E949C04EACF833041F47E01E2E0EE0E04
:102CB000F11C8A810E942E05E0CF843011F021960C
:102CC000DDCF2A81229690E080E0AE014F5F5F4F1A
:102CD0002053330B2A30310548F0019778F2EFE9A1
:102CE000FFE03197F1F700C00000F7CF089FB00177
:102CF000099F700D1124C901860F971F2981EA01D0
:102D0000E4CF0E94C615BACFCDB7DEB7E6E00C948B
:102D1000F32260E00E942316089580910C01877FC2
:102D200080930C0182E00E94A50C80910C0184FF2D
:102D300006C08F7E80930C0182E00E948F0C8091F0
:102D40000C0185FF06C08F7D80930C0180E20E94FC
:102D50008F0C0E94CD0C089580E008958B32910570
:102D600039F040F49C01245031092432310558F4E3
:102D700081E008958D32910530F089339105C0F3DB
:102D800084369105A9F30E94AC160895CF93DF9382
:102D9000EC01662319F082E00E949F0CCE01905254
:102DA0008115904308F4DD27CE010E946D02DF916A
:102DB000CF9108959C0130522115304308F4992792
:102DC0000E9483020895FC0123E0F695E7952A9579
:102DD000E1F7EE71FF27E45AFD4F20813181AC010C
:102DE0004F70552781E090E002C0880F991F4A95E7
:102DF000E2F7662329F0822B932B91838083089539
:102E00008095909582239323F8CFFC0123E0F695DB
:102E1000E7952A95E1F7EE71FF27E45AFD4F8F7091
:102E2000992721E030E002C0220F331F8A95E2F794
:102E3000808191812823392381E0232B09F480E0CC
:102E40000895EF92FF920F931F93CF93DF93EC01BE
:102E50007B018A0180910C0182FF5DC0209182027A
:102E6000309183022C173D0719F0209709F053C0C9
:102E700090910C019B7F90930C0161E091FD10C03B
:102E80008091840290918502A701481B590B61E053
:102E900080910D0190910E014817590708F460E0E8
:102EA000617080910C0160FB81F980930C01C90174
:102EB0000E94E3160E948C0C81FF08C080910C01D7
:102EC000806180930C0182E00E94950C0E948C0C22
:102ED00085FF08C080910C01806280930C0180E224
:102EE0000E94950C60910C0166956170A80180911B
:102EF0008202909183020E94C61660910C01669531
:102F00006170A80180918202909183020E94DA167A
:102F10000E948D160FC0CE010E940517A801682FD0
:102F2000CE010E94DA168091820290918302C81726
:102F3000D90771F3F0928502E0928402CDB7DEB733
:102F4000E6E00C94F32280910C0182FF19C00E94EC
:102F5000991B2091840230918502AC01421B530BD6
:102F600020910D0130910E014217530748F04CE7B4
:102F700052E0BC0180918202909183020E9421174D
:102F8000089590910C01892F8E7F90FF816080932E
:102F90000C010E948D16089580910C018E7F809304
:102FA0000C010E948D16089560E280910D019091B0
:102FB0000E010E94F403FC01019620812032D9F316
:102FC000CF010E9489160895CF92DF92EF92FF926F
:102FD0001F93CF93DF93EC017B010E94991B6C013F
:102FE000F7018281882309F453C080910C0182FF8C
:102FF00007C04CE752E0B60190E080E00E94211744
:10300000C231FCE7DF0709F440C000F5C0318CE7AE
:10301000D80789F180910D0190910E010596C1317B
:10302000ECE7DE0769F1CE01905281159043F0F58F
:10303000109283021092820211E0812FDF91CF91D2
:103040001F91FF90EF90DF90CF900895C431FCE77F
:10305000DF0771F038F0C5318CE7D80721F70E94FF
:10306000C117E1CF80910C01816080930C01DBCF0F
:103070000E94CC17D8CF80910D0190910E01059739
:1030800090930E0180930D01CECF0E94D417CBCF29
:1030900080910C018F7EC13ED10531F0C53ED10536
:1030A000A1F580910C018F7D80930C0180910C0122
:1030B00080FFC2CFB701CE010E94AE16F701128188
:1030C000882309F466C0112309F45DC00E948C0CAA
:1030D000182F0E94AF0C812B8D7F41F1109283023B
:1030E0001092820260E0CE010E94E316A70160E028
:1030F000CE010E94C6160E94AF0C8D7F0E94B60CB6
:1031000082E00E94300D10E098CFCE0190528115E0
:10311000904360F680910C0182FF8ECF4CE752E025
:10312000B60190E080E00E94211786CF86E0F7018B
:10313000ACE7B2E001900D928A95E1F710927E0221
:103140001092800210927F020E948C0C182F0E9415
:10315000AF0C812B90910C0181FB91F990930C01A4
:103160000E94AF0C8D7F0E94B60CD0938302C09357
:103170008202D0928502C092840280910C01846008
:1031800080930C01BDCFA701B601CE010E9421178B
:1031900054CF11114DCF50CFCF93DF93EB01863138
:1031A0009C4711F50E948C0C9A81992399F08A7A98
:1031B00091E009F490E090938602811109C089E2C0
:1031C0000E94640C0E94CD0C80E0DF91CF910895A5
:1031D00085E3F6CF80918602811104C089E20E94C6
:1031E0006C0CF0CF85E3FBCF81E0EFCF0F931F9303
:1031F000CF93DF93C42FD22FFC0182818823C9F0A3
:10320000409389020E94991B9093880280938702C1
:1032100080E28C0F883040F4C77081E001C0880FD5
:10322000CA95EAF70E94A905DF91CF911F910F91EE
:10323000089510918902141332C0809187029091F1
:1032400088020E94B11B883C910548F5C0E2CD0F71
:103250001D17B9F080E2810F883040F4177081E0CB
:1032600001C0880F1A95EAF70E94B005C83048F4EB
:1032700081E09D2F977001C0880F9A95EAF70E9410
:10328000A905802F0E94A005C83070F6D77081E094
:1032900001C0880FDA95EAF70E94B005C5CF80E239
:1032A0008C0F883008F6C77081E001C0880FCA957E
:1032B000EAF7F2CF0F93DB0188519C4787309105E5
:1032C000A0F5FC01E256FC4D0C94C52206E221EE6D
:1032D00041EE6AE17CE7CD010E94F61880E00F9193
:1032E000089507E225EE45EE6BE17CE7F4CF06E2B8
:1032F00021EE40EE68E17CE7EECF07E225EE44EEFA
:1033000069E17CE7E8CF06E221EE42EE6CE17CE782
:10331000E2CF07E225EE46EE6DE17CE7DCCF08E286
:1033200021E045EE6EE17CE7D6CF12968C918823A2
:1033300019F010928902D3CF81E0D1CF90939301FD
:1033400080939201089590938F0280938E02089546
:10335000E0918E02F0918F02309729F00190F08178
:10336000E02D0995089580E00895E0918E02F09196
:103370008F02309799F020911701222359F0209164
:10338000B40227FF07C0DC012C9111962C931197F2
:1033900026E02C930280F381E02D09950895E091B9
:1033A0008E02F0918F02309739F022E0DC012C93ED
:1033B0000480F581E02D09950895A3E0B0E0E3EEE7
:1033C000F9E10C94DB2220918C0230918D022817B8
:1033D0003907A1F090938D0280938C02E0918E02C8
:1033E000F0918F02309751F023E029839B838A83E9
:1033F0000680F781E02DCE01019609952396E2E043
:103400000C94F722A3E0B0E0E8E0FAE10C94DB22B0
:1034100020918A0230918B0228173907A1F09093EE
:103420008B0280938A02E0918E02F0918F02309796
:1034300051F024E029839B838A830680F781E02D65
:10344000CE01019609952396E2E00C94F722FC0147
:10345000329680911701882321F08091B4029EE179
:1034600087FF96E080E0915008F40895219122238F
:10347000D1F38F5FF8CF662301F12091170122234A
:10348000F1F02091B40227FF1AC0462F46954695C9
:1034900046954E3190F4677021E030E002C0220F73
:1034A000331F6A95E2F7840F911DFC01828190E041
:1034B0002823392381E0232B69F480E00895FC015F
:1034C000329608962191261721F0E817F907D1F7CF
:1034D000F4CF81E008959C01FC0132969FEF80E0DB
:1034E0004191461751F09F3F19F4411101C0982FA7
:1034F0008F5F8630A9F79F3F09F40895290F311D8A
:1035000097FD3A95F90162830895FC013296089679
:103510002191261303C0DF0111971C92E817F907C8
:10352000B9F70895E62FE695E695E695EE3168F44D
:10353000E80FF92FF11D677021E030E001C0220F84
:103540006A95EAF78281822B82830895E62FE695B9
:10355000E695E695EE3170F4E80FF92FF11D6770EE
:1035600021E030E001C0220F6A95EAF720958281C0
:1035700028232283089520911701222339F02091D6
:10358000B40227FF03C00E94921A08950E946B1A8A
:10359000089520911701222339F02091B40227FFCA
:1035A00003C00E94A61A08950E94851A0895FC017E
:1035B000329680911701882351F08091B40287FFE1
:1035C00006C08EE1DF011D928A95E9F7089586E035
:1035D000F9CF46E050E00E94162321E0892B09F440
:1035E00020E0822F089508950E94F31A0895811112
:1035F00006C081E0809390020E94F41A089582E050
:10360000F9CF83E0809390020E94F41A08950E94FB
:10361000F71A089581E0809390020E94F41A0895A9
:103620000E940A1B0895089508950E94141B08958E
:10363000089508950E94131B0895CF930E94181BAC
:103640000E94D0110E94191BC0E08C2F0E9404110F
:10365000892B31F4CF5FC430C1F780E0CF9108955A
:1036600081E0FCCF85B7806885BF85B7806885BF5E
:1036700008951F921FB61F9211248F939F93AF93AB
:10368000BF9380919102811113C08091C6029091E5
:10369000C702A091C802B091C9024196A11DB11DF7
:1036A0008093C6029093C702A093C802B093C90248
:1036B000BF91AF919F918F911F901FBE1F90189542
:1036C0008091CE02843031F10E94920310929102D7
:1036D00088E190E020E40FB6F894A895809360000C
:1036E0000FBE2093600083B7817F846083BF83B760
:1036F000816083BF7894889583B78E7F83BF0FB630
:10370000F894A89580916000886180936000109281
:1037100060000FBE08950E9414080E949703089548
:1037200082E084BD93E095BD9AEF97BD80936E00D3
:1037300008952FB7F8948091C6029091C702A09186
:10374000C802B091C9022FBF08952FB7F8946091B5
:10375000C6027091C7028091C8029091C9022FBF22
:1037600008959C014FB7F8948091C6029091C702CA
:10377000A091C802B091C9024FBF821B930B08955C
:1037800078941F921FB61F9211248F939F93AF932B
:10379000BF938091C6029091C702A091C802B091D8
:1037A000C9020196A11DB11D8093C6029093C70264
:1037B000A093C802B093C902BF91AF919F918F911E
:1037C0001F901FBE1F90189587E797E790930108F9
:1037D0008093000888E19AE00FB6F894A89580934A
:1037E00060000FBE90936000FFCF88E19AE00FB6B3
:1037F000F894A895809360000FBE90936000FFCF6F
:103800008091B20208959B01BA019091CE0294304A
:10381000E9F48F708093E9009FEF8091E800915068
:1038200085FD06C085ED8A95F1F700009111F5CF71
:103830008091E80085FF0AC050E040E0C9010E9485
:10384000081E8091E8008E778093E800089543E099
:1038500050E0BC0182E00E94031C089546E050E065
:10386000BC0182E00E94031C0895CF93DF93EC011A
:1038700080911701811111C048E050E0BE0181E044
:103880000E94031C80E2FE01A2E9B2E001900D92C9
:103890008A95E1F7DF91CF9108958091B40287FF77
:1038A00005C040E282E050E0BE01EACF48E081E09E
:1038B000FACF8091CD02811109C00E94981F0E9409
:1038C000F51F8091E20084608093E20008951092D9
:1038D000CD0208950E940A1B08956091CA0281E0FA
:1038E000611101C080E00E94011B08959091CE02F9
:1038F00081E0943009F080E06091CA020E94071BC9
:10390000089542E061EC81E00E94141F42E261EC04
:1039100082E00E94141F9091CE0281E0943009F061
:1039200080E06091CA020E94F71A08958091D00247
:10393000833009F461C030F48130D1F1823009F470
:103940009EC008958A3009F48AC08B3009F46FC094
:10395000893009F050C08091CF02813209F04BC00C
:103960008091D3029091D402029708F044C08091D4
:10397000E800877F8093E8008091E80082FF37C0ED
:103980009091F3008091F200029731F48091F10060
:10399000813011F0863021F48091F1008093B202E1
:1039A0008091E8008B778093E8000E94481F23C035
:1039B0008091CF02813AF9F48091E800877F80936B
:1039C000E8008091D3029091D402892B61F460E2E7
:1039D00082E992E070E00E94571E8091E8008B77A8
:1039E0008093E800089560E090E080E0F3CF80915C
:1039F000CE028111C1CF08958091CF02813AD9F7CB
:103A00008091D3029091D402892BA9F78091E8008C
:103A1000877F8093E8008091E80080FFFCCF809151
:103A200017018093F1008091E8008E77BCCF8091E0
:103A3000CF02813201F78091D3029091D402892B79
:103A4000D1F68091E800877F8093E8000E94481FAC
:103A50008091D102809317010E94140808958091EB
:103A6000CF02813241F68091E800877F8093E800A1
:103A70000E94481F8091D2028093B30208958091E2
:103A8000CF02813A09F0B7CF8091E800877F809319
:103A9000E8008091E80080FFFCCF8091B302C1CFA5
:103AA00084B7877F84BF0FB6F894A8958091600093
:103AB000886180936000109260000FBE80E890E003
:103AC0000FB6F89480936100909361000FBE0E943E
:103AD000101B08950E94981F0E94F51FE2EEF0E06F
:103AE00080818460808378940E94742208958FE09E
:103AF00091E00E94A31908958091CE02853031F49F
:103B00008091CE02853019F00E948B1B08950E948F
:103B1000601B8091CC02882399F30E941D1B88238F
:103B200079F30E94F21D0E941408EACF08950E94C2
:103B30009A1D0895292F33272330310519F168F490
:103B40002130310509F444C02230310509F445C063
:103B500090E080E030E020E025C02132310549F1DD
:103B600022323105A9F780E490E023E433E06115C7
:103B70007105C1F086EB90E02DE832E0613071050F
:103B800089F0E6CF99278130910581F0009729F0DF
:103B90000297F1F6ECE1F2E002C0ECE3F2E084918E
:103BA00090E09F01FA01318320830895ECE2F2E076
:103BB000F6CF89E090E022E532E06115710591F3DE
:103BC00089E090E02BE632E06130710559F3C0CF17
:103BD00082E190E02BE732E0E5CF8BE390E020E458
:103BE00032E0E0CF80E189BD82E189BD09B400FE09
:103BF000FDCF8091D8008F7D8093D8008091E00028
:103C000082608093E0008091E00081FDFCCF089508
:103C1000AF92BF92CF92DF92FF920F931F93CF93F9
:103C2000DF936C01EB018A010E94671FF82E81115E
:103C300023C00115110539F0F80180819181C81B5D
:103C4000D90BC80ED91EB12CA12C2097A9F08091B8
:103C5000E80085FD22C08091E8008E778093E8001F
:103C600001151105A1F0F80180819181A80EB91EFE
:103C7000B182A08285E0F82E8F2DDF91CF911F9128
:103C80000F91FF90DF90CF90BF90AF9008950E946A
:103C9000671F8823D1F2F82EEFCFF60181916F01D3
:103CA0008093F1002197FFEFAF1ABF0ACECFFC013E
:103CB0008091D5029091D60286179707A0F06115E2
:103CC000710529F49091E8009E779093E80090E0C8
:103CD0006115710551F4911108C08091E80082FFCF
:103CE00034C080E00895BC01F2CF8091CE028823D9
:103CF000C1F18530C1F18091E80083FD30C0809131
:103D0000E80082FDEACF8091E80080FFE1CF80915A
:103D1000F3002091F200382F6115710519F0283059
:103D2000310558F091E02830310509F090E02091FC
:103D3000E8002E772093E800CBCF81918093F100AB
:103D4000615071092F5F3F4FE7CF8091CE028823EA
:103D500041F0853041F08091E80083FFBECF81E0E3
:103D6000089582E0089583E00895FC018091D502D2
:103D70009091D60286179707A0F06115710529F476
:103D80008091E8008E778093E80090E061157105DE
:103D900051F4911108C08091E80082FF35C080E0A5
:103DA0000895BC01F2CF8091CE028823C9F18530FD
:103DB000C9F18091E80083FD31C08091E80082FD67
:103DC000EACF8091E80080FFE1CF8091F30020915D
:103DD000F200382F6115710519F02830310558F0BF
:103DE00091E02830310509F090E08091E8008E776D
:103DF0008093E800CBCF84918093F100319661509D
:103E000071092F5F3F4FE6CF8091CE02882341F0AA
:103E1000853041F08091E80083FFBDCF81E00895B7
:103E200082E0089583E00895982F973028F08F70EE
:103E30008093E90081E008959093E900242F762F84
:103E400050E0981731F07091EC002091ED00509106
:103E5000F00021FD02C09F5FE8CF3091EB003E7F74
:103E60003093EB003091ED003D7F3093ED003091C9
:103E7000EB0031603093EB007093EC002093ED0089
:103E80005093F0002091EE0027FDE5CF80E00895EB
:103E90008091CF0287FF13C08091E80082FF06C0A7
:103EA0008091E8008B778093E80004C08091CE0277
:103EB0008111F2CF08958091CE028823D9F38091A9
:103EC000E80080FFF8CF8091E8008E77ECCF20915A
:103ED000E4003091E50095E6A9012091EC00822FE5
:103EE000817020FF06C08091E80080FF06C080E05E
:103EF00008952091E80022FD1AC08091CE02882307
:103F000089F0853089F08091EB0085FD0FC020910C
:103F1000E4003091E50042175307F9F29150E1F6C1
:103F200084E0089582E0089583E0089581E0089593
:103F30000E9407200E940F20E0EEF0E08081816067
:103F40008083E8EDF0E080818F77808319BCA7ED56
:103F5000B0E08C918E7F8C9380818F7E80831092D5
:103F6000CD0208950F931F93CF93DF930E940720F4
:103F70000E940F20C8EDD0E088818F7788838881E8
:103F80008068888388818F7D888319BC1092CE02D7
:103F90001092CA021092CC021092CB0200EE10E0F6
:103FA000F80180818B7F808388818160888342E0F3
:103FB00060E080E00E94141FE1EEF0E080818E7FDF
:103FC0008083E2EEF0E08081816080838081886080
:103FD0008083F80180818E7F8083888180618883DF
:103FE000DF91CF911F910F910895E8EDF0E080816E
:103FF0008F7E8083E7EDF0E080818160808384E0C4
:1040000082BF81E08093CD020E94B21F0895E8ED47
:10401000F0E080818E7F80831092E20008951092FC
:10402000DA001092E10008951F920F920FB60F92DE
:1040300011242F933F934F935F936F937F938F93AD
:104040009F93AF93BF93EF93FF938091E10082FF23
:104050000BC08091E20082FF07C08091E1008B7F5E
:104060008093E1000E9473228091DA0080FF19C0E2
:104070008091D80080FF15C08091DA008E7F8093F8
:10408000DA008091D90080FF96C080E189BD82E18D
:1040900089BD09B400FEFDCF81E08093CE020E946D
:1040A000591C8091E10080FF19C08091E20080FFDF
:1040B00015C08091E2008E7F8093E2008091E20043
:1040C00080618093E2008091D80080628093D80064
:1040D00019BC85E08093CE020E946D1C8091E100A6
:1040E00084FF2BC08091E20084FF27C080E189BD5E
:1040F00082E189BD89B5982F917080FFFBCF8091B7
:10410000D8008F7D8093D8008091E1008F7E8093CE
:10411000E1008091E2008F7E8093E2008091E200D6
:1041200081608093E2008091CA02882309F449C02B
:1041300084E08093CE020E94761C8091E10083FF90
:1041400029C08091E20083FF25C08091E100877F34
:104150008093E10082E08093CE021092CA028091A7
:10416000E1008E7F8093E1008091E2008E7F80935A
:10417000E2008091E20080618093E20042E060E032
:1041800080E00E94141F8091F00088608093F0000E
:104190000E946A1CFF91EF91BF91AF919F918F9107
:1041A0007F916F915F914F913F912F910F900FBE33
:1041B0000F901F90189519BC1092CE020E94671C98
:1041C00070CF8091E30087FD93E09093CE02B3CF50
:1041D0001F920F920FB60F9211242F933F934F937C
:1041E0005F936F937F938F939F93AF93BF93CF937F
:1041F000DF93EF93FF93D091E900DF708091EC00A3
:10420000C82FC17080FDC0E81092E9008091F000D5
:10421000877F8093F00078940E942C211092E9000F
:104220008091F00088608093F000CD2BCF70C09318
:10423000E900FF91EF91DF91CF91BF91AF919F91F5
:104240008F917F916F915F914F913F912F910F903F
:104250000FBE0F901F901895AAE2B0E0E2E3F1E2E2
:104260000C94DA228FEC92E02091F100FC01219372
:10427000CF01F2E0873D9F07B9F70E94961C80911D
:10428000E80083FF1EC18091CF029091D0029A3046
:1042900008F017C1E92FF0E0EB55FC4D0C94C52256
:1042A000803899F0823809F00CC18091D3028F7068
:1042B000873008F006C18093E9008091EB0085FB10
:1042C000882780F91092E90006C08091CB02909176
:1042D000CC02911182609091E800977F9093E80062
:1042E0008093F1001092F1008091E8008E77E5C094
:1042F000882309F4D3C0823009F0E3C08091D10251
:104300008111D6C08091D3028F702FEF280F2630F5
:1043100008F0D7C08093E9002091EB0020FFC8C0CF
:10432000933031F48091EB0080628093EB00C0C049
:104330009091EB0090619093EB0021E030E001C0A0
:10434000220F8A95EAF72093EA001092EA00809102
:10435000EB008860EACF8111B4C01091D1021F77C1
:104360008091E3008078812B8093E3008091E800C6
:10437000877F8093E8000E94481F8091E80080FFBB
:10438000FCCF8091E30080688093E30082E011110C
:1043900083E08093CE0295C08058823008F091C0AF
:1043A0008091D1029091D2028C3D23E09207A1F539
:1043B00083E08A838AE289834FB7F894DE011396FB
:1043C00020E03EE051E2E32FF0E050935700E4910B
:1043D00020FF03C0E295EF703F5FEF708E2F90E0FB
:1043E000EA30C0F0C7968D939D932F5F243159F723
:1043F0004FBF8091E800877F8093E8006AE270E019
:10440000CE0101960E94571E8091E8008B77809321
:10441000E80057C0C096E7CF6091D3027091D402F4
:10442000AE014F5F5F4F0E94971DBC01892B09F4BD
:1044300048C09091E800977F9093E80089819A8125
:104440000E94B51EE1CF8038E1F58091E800877FBA
:104450008093E8008091CA028093F10045CF8111DA
:1044600030C09091D102923060F58091E800877F52
:104470008093E8009093CA020E94481F8091CA026C
:10448000882311F084E005C08091E30087FDFACF16
:1044900081E08093CE020E94811C13C08091D102E2
:1044A000813079F481E0933009F080E08093CC0290
:1044B0001092E9008091E800877F8093E8000E94D5
:1044C000481F8091E80083FF0AC08091E800877F41
:1044D0008093E8008091EB0080628093EB00AA96C5
:1044E000E3E00C94F6220895CF938091CE028823C6
:1044F000A1F0C091E900CF709091EC00892F8170FC
:1045000090FD80E8C82B1092E9008091E80083FDBF
:104510000E942C21CF70C093E900CF91089597FBA2
:10452000072E16F4009407D077FD09D00E940223CD
:1045300007FC05D03EF4909581959F4F08957095A6
:1045400061957F4F0895A1E21A2EAA1BBB1BFD01A6
:104550000DC0AA1FBB1FEE1FFF1FA217B307E40762
:10456000F50720F0A21BB30BE40BF50B661F771FBA
:10457000881F991F1A9469F760957095809590959A
:104580009B01AC01BD01CF010895EE0FFF1F059007
:10459000F491E02D09942F923F924F925F926F9287
:1045A0007F928F929F92AF92BF92CF92DF92EF92C3
:1045B000FF920F931F93CF93DF93CDB7DEB7CA1B44
:1045C000DB0B0FB6F894DEBF0FBECDBF09942A886F
:1045D000398848885F846E847D848C849B84AA8417
:1045E000B984C884DF80EE80FD800C811B81AA81A4
:1045F000B981CE0FD11D0FB6F894DEBF0FBECDBF6F
:10460000ED010895AA1BBB1B51E107C0AA1FBB1FE8
:10461000A617B70710F0A61BB70B881F991F5A954E
:10462000A9F780959095BC01CD010895FB01DC01AF
:1046300004C08D910190801921F441505040C8F779
:10464000881B990B0895FB01DC0102C001900D92BB
:1046500041505040D8F70895F999FECF92BD81BDE1
:10466000F89A992780B50895A8E1B0E042E050E0BB
:104670000C946023262FF999FECF92BD81BDF89A44
:10468000019700B4021639F01FBA20BD0FB6F89496
:10469000FA9AF99A0FBE08950396272F0E943B239A
:1046A0000E943A23252F0E943B23242F0C943B2366
:1046B0000196272F0E943B230C943A23DC01CB0167
:1046C000FC01F999FECF06C0F2BDE1BDF89A319622
:1046D00000B40D9241505040B8F70895F894FFCFC0
:1046E000F205F20523062306B506D1065206520648
:1046F000D6064707560756074215B6154A1514152C
:1047000018154E151C1552155E152815AF152C15CC
:104710006215301566158E1534156A1595153A15FE
:10472000701578152015561524155A153E15741553
:1047300084159E15AD150E154615BD1577197D19F5
:1047400066197119831989198F19502178216122ED
:0E47500078216122AB21CC21612223222F226D
:10475E00FF001702280850011E0A140101AF0000C5
:10476E001C351C2E1C271C01E200E900EA00B500D6
:10477E00B600B700CD008301CC008A0192019401EE
:10478E002102230224022502260227022A02B30056
:10479E00B4006F0070009F01CB01818283E200E9BB
:1047AE0000EA00B500B600B700CD008301CC008A48
:1047BE0001920194012102230224022502260227DE
:1047CE00022A02B300B4006F0070009F01CB01817A
:1047DE008283F4F53534C697669490919293F633AE
:0247EE00323661
:00000001FF
